{
	"contracts/Staking.sol": {
		"Staking": {
			"abi": [
				{
					"inputs": [
						{
							"internalType": "address",
							"name": "stakingToken",
							"type": "address"
						},
						{
							"internalType": "address",
							"name": "rewardToken",
							"type": "address"
						}
					],
					"stateMutability": "nonpayable",
					"type": "constructor"
				},
				{
					"anonymous": false,
					"inputs": [
						{
							"indexed": true,
							"internalType": "address",
							"name": "user",
							"type": "address"
						},
						{
							"indexed": true,
							"internalType": "uint256",
							"name": "amount",
							"type": "uint256"
						}
					],
					"name": "RewardsClaimed",
					"type": "event"
				},
				{
					"anonymous": false,
					"inputs": [
						{
							"indexed": true,
							"internalType": "address",
							"name": "user",
							"type": "address"
						},
						{
							"indexed": true,
							"internalType": "uint256",
							"name": "amount",
							"type": "uint256"
						}
					],
					"name": "Staked",
					"type": "event"
				},
				{
					"anonymous": false,
					"inputs": [
						{
							"indexed": true,
							"internalType": "address",
							"name": "user",
							"type": "address"
						},
						{
							"indexed": true,
							"internalType": "uint256",
							"name": "amount",
							"type": "uint256"
						}
					],
					"name": "Withdrawn",
					"type": "event"
				},
				{
					"inputs": [],
					"name": "REWARD_RATE",
					"outputs": [
						{
							"internalType": "uint256",
							"name": "",
							"type": "uint256"
						}
					],
					"stateMutability": "view",
					"type": "function"
				},
				{
					"inputs": [
						{
							"internalType": "address",
							"name": "account",
							"type": "address"
						}
					],
					"name": "earned",
					"outputs": [
						{
							"internalType": "uint256",
							"name": "",
							"type": "uint256"
						}
					],
					"stateMutability": "view",
					"type": "function"
				},
				{
					"inputs": [],
					"name": "getReward",
					"outputs": [],
					"stateMutability": "nonpayable",
					"type": "function"
				},
				{
					"inputs": [],
					"name": "lastUpdatedTime",
					"outputs": [
						{
							"internalType": "uint256",
							"name": "",
							"type": "uint256"
						}
					],
					"stateMutability": "view",
					"type": "function"
				},
				{
					"inputs": [],
					"name": "rewardPerToken",
					"outputs": [
						{
							"internalType": "uint256",
							"name": "",
							"type": "uint256"
						}
					],
					"stateMutability": "view",
					"type": "function"
				},
				{
					"inputs": [],
					"name": "rewardPerTokenStored",
					"outputs": [
						{
							"internalType": "uint256",
							"name": "",
							"type": "uint256"
						}
					],
					"stateMutability": "view",
					"type": "function"
				},
				{
					"inputs": [
						{
							"internalType": "address",
							"name": "",
							"type": "address"
						}
					],
					"name": "rewards",
					"outputs": [
						{
							"internalType": "uint256",
							"name": "",
							"type": "uint256"
						}
					],
					"stateMutability": "view",
					"type": "function"
				},
				{
					"inputs": [],
					"name": "s_rewardToken",
					"outputs": [
						{
							"internalType": "contract IERC20",
							"name": "",
							"type": "address"
						}
					],
					"stateMutability": "view",
					"type": "function"
				},
				{
					"inputs": [],
					"name": "s_stakingToken",
					"outputs": [
						{
							"internalType": "contract IERC20",
							"name": "",
							"type": "address"
						}
					],
					"stateMutability": "view",
					"type": "function"
				},
				{
					"inputs": [
						{
							"internalType": "uint256",
							"name": "amount",
							"type": "uint256"
						}
					],
					"name": "stake",
					"outputs": [],
					"stateMutability": "nonpayable",
					"type": "function"
				},
				{
					"inputs": [
						{
							"internalType": "address",
							"name": "",
							"type": "address"
						}
					],
					"name": "stakedBalance",
					"outputs": [
						{
							"internalType": "uint256",
							"name": "",
							"type": "uint256"
						}
					],
					"stateMutability": "view",
					"type": "function"
				},
				{
					"inputs": [
						{
							"internalType": "address",
							"name": "",
							"type": "address"
						}
					],
					"name": "userRewardPerTokenPaid",
					"outputs": [
						{
							"internalType": "uint256",
							"name": "",
							"type": "uint256"
						}
					],
					"stateMutability": "view",
					"type": "function"
				},
				{
					"inputs": [
						{
							"internalType": "uint256",
							"name": "amount",
							"type": "uint256"
						}
					],
					"name": "withdraw",
					"outputs": [],
					"stateMutability": "nonpayable",
					"type": "function"
				}
			],
			"devdoc": {
				"kind": "dev",
				"methods": {},
				"version": 1
			},
			"evm": {
				"assembly": "    /* \"contracts/Staking.sol\":259:2955  contract Staking is ReentrancyGuard{... */\n  mstore(0x40, 0x80)\n    /* \"contracts/Staking.sol\":889:1041  constructor (address stakingToken,address rewardToken){... */\n  callvalue\n  dup1\n  iszero\n  tag_1\n  jumpi\n  0x00\n  dup1\n  revert\ntag_1:\n  pop\n  mload(0x40)\n  sub(codesize, bytecodeSize)\n  dup1\n  bytecodeSize\n  dup4\n  codecopy\n  dup2\n  dup2\n  add\n  0x40\n  mstore\n  dup2\n  add\n  swap1\n  tag_2\n  swap2\n  swap1\n  tag_3\n  jump\t// in\ntag_2:\n    /* \"@openzeppelin/contracts/security/ReentrancyGuard.sol\":1716:1717  1 */\n  0x01\n    /* \"@openzeppelin/contracts/security/ReentrancyGuard.sol\":1821:1828  _status */\n  0x00\n    /* \"@openzeppelin/contracts/security/ReentrancyGuard.sol\":1821:1843  _status = _NOT_ENTERED */\n  dup2\n  swap1\n  sstore\n  pop\n    /* \"contracts/Staking.sol\":976:988  stakingToken */\n  dup2\n    /* \"contracts/Staking.sol\":954:968  s_stakingToken */\n  0x01\n  0x00\n    /* \"contracts/Staking.sol\":954:989  s_stakingToken=IERC20(stakingToken) */\n  0x0100\n  exp\n  dup2\n  sload\n  dup2\n  0xffffffffffffffffffffffffffffffffffffffff\n  mul\n  not\n  and\n  swap1\n  dup4\n  0xffffffffffffffffffffffffffffffffffffffff\n  and\n  mul\n  or\n  swap1\n  sstore\n  pop\n    /* \"contracts/Staking.sol\":1021:1032  rewardToken */\n  dup1\n    /* \"contracts/Staking.sol\":1000:1013  s_rewardToken */\n  0x02\n  0x00\n    /* \"contracts/Staking.sol\":1000:1033  s_rewardToken=IERC20(rewardToken) */\n  0x0100\n  exp\n  dup2\n  sload\n  dup2\n  0xffffffffffffffffffffffffffffffffffffffff\n  mul\n  not\n  and\n  swap1\n  dup4\n  0xffffffffffffffffffffffffffffffffffffffff\n  and\n  mul\n  or\n  swap1\n  sstore\n  pop\n    /* \"contracts/Staking.sol\":889:1041  constructor (address stakingToken,address rewardToken){... */\n  pop\n  pop\n    /* \"contracts/Staking.sol\":259:2955  contract Staking is ReentrancyGuard{... */\n  jump(tag_8)\n    /* \"#utility.yul\":88:205   */\ntag_10:\n    /* \"#utility.yul\":197:198   */\n  0x00\n    /* \"#utility.yul\":194:195   */\n  dup1\n    /* \"#utility.yul\":187:199   */\n  revert\n    /* \"#utility.yul\":334:460   */\ntag_12:\n    /* \"#utility.yul\":371:378   */\n  0x00\n    /* \"#utility.yul\":411:453   */\n  0xffffffffffffffffffffffffffffffffffffffff\n    /* \"#utility.yul\":404:409   */\n  dup3\n    /* \"#utility.yul\":400:454   */\n  and\n    /* \"#utility.yul\":389:454   */\n  swap1\n  pop\n    /* \"#utility.yul\":334:460   */\n  swap2\n  swap1\n  pop\n  jump\t// out\n    /* \"#utility.yul\":466:562   */\ntag_13:\n    /* \"#utility.yul\":503:510   */\n  0x00\n    /* \"#utility.yul\":532:556   */\n  tag_22\n    /* \"#utility.yul\":550:555   */\n  dup3\n    /* \"#utility.yul\":532:556   */\n  tag_12\n  jump\t// in\ntag_22:\n    /* \"#utility.yul\":521:556   */\n  swap1\n  pop\n    /* \"#utility.yul\":466:562   */\n  swap2\n  swap1\n  pop\n  jump\t// out\n    /* \"#utility.yul\":568:690   */\ntag_14:\n    /* \"#utility.yul\":641:665   */\n  tag_24\n    /* \"#utility.yul\":659:664   */\n  dup2\n    /* \"#utility.yul\":641:665   */\n  tag_13\n  jump\t// in\ntag_24:\n    /* \"#utility.yul\":634:639   */\n  dup2\n    /* \"#utility.yul\":631:666   */\n  eq\n    /* \"#utility.yul\":621:684   */\n  tag_25\n  jumpi\n    /* \"#utility.yul\":680:681   */\n  0x00\n    /* \"#utility.yul\":677:678   */\n  dup1\n    /* \"#utility.yul\":670:682   */\n  revert\n    /* \"#utility.yul\":621:684   */\ntag_25:\n    /* \"#utility.yul\":568:690   */\n  pop\n  jump\t// out\n    /* \"#utility.yul\":696:839   */\ntag_15:\n    /* \"#utility.yul\":753:758   */\n  0x00\n    /* \"#utility.yul\":784:790   */\n  dup2\n    /* \"#utility.yul\":778:791   */\n  mload\n    /* \"#utility.yul\":769:791   */\n  swap1\n  pop\n    /* \"#utility.yul\":800:833   */\n  tag_27\n    /* \"#utility.yul\":827:832   */\n  dup2\n    /* \"#utility.yul\":800:833   */\n  tag_14\n  jump\t// in\ntag_27:\n    /* \"#utility.yul\":696:839   */\n  swap3\n  swap2\n  pop\n  pop\n  jump\t// out\n    /* \"#utility.yul\":845:1352   */\ntag_3:\n    /* \"#utility.yul\":924:930   */\n  0x00\n    /* \"#utility.yul\":932:938   */\n  dup1\n    /* \"#utility.yul\":981:983   */\n  0x40\n    /* \"#utility.yul\":969:978   */\n  dup4\n    /* \"#utility.yul\":960:967   */\n  dup6\n    /* \"#utility.yul\":956:979   */\n  sub\n    /* \"#utility.yul\":952:984   */\n  slt\n    /* \"#utility.yul\":949:1068   */\n  iszero\n  tag_29\n  jumpi\n    /* \"#utility.yul\":987:1066   */\n  tag_30\n  tag_10\n  jump\t// in\ntag_30:\n    /* \"#utility.yul\":949:1068   */\ntag_29:\n    /* \"#utility.yul\":1107:1108   */\n  0x00\n    /* \"#utility.yul\":1132:1196   */\n  tag_31\n    /* \"#utility.yul\":1188:1195   */\n  dup6\n    /* \"#utility.yul\":1179:1185   */\n  dup3\n    /* \"#utility.yul\":1168:1177   */\n  dup7\n    /* \"#utility.yul\":1164:1186   */\n  add\n    /* \"#utility.yul\":1132:1196   */\n  tag_15\n  jump\t// in\ntag_31:\n    /* \"#utility.yul\":1122:1196   */\n  swap3\n  pop\n    /* \"#utility.yul\":1078:1206   */\n  pop\n    /* \"#utility.yul\":1245:1247   */\n  0x20\n    /* \"#utility.yul\":1271:1335   */\n  tag_32\n    /* \"#utility.yul\":1327:1334   */\n  dup6\n    /* \"#utility.yul\":1318:1324   */\n  dup3\n    /* \"#utility.yul\":1307:1316   */\n  dup7\n    /* \"#utility.yul\":1303:1325   */\n  add\n    /* \"#utility.yul\":1271:1335   */\n  tag_15\n  jump\t// in\ntag_32:\n    /* \"#utility.yul\":1261:1335   */\n  swap2\n  pop\n    /* \"#utility.yul\":1216:1345   */\n  pop\n    /* \"#utility.yul\":845:1352   */\n  swap3\n  pop\n  swap3\n  swap1\n  pop\n  jump\t// out\n    /* \"contracts/Staking.sol\":259:2955  contract Staking is ReentrancyGuard{... */\ntag_8:\n  dataSize(sub_0)\n  dup1\n  dataOffset(sub_0)\n  0x00\n  codecopy\n  0x00\n  return\nstop\n\nsub_0: assembly {\n        /* \"contracts/Staking.sol\":259:2955  contract Staking is ReentrancyGuard{... */\n      mstore(0x40, 0x80)\n      callvalue\n      dup1\n      iszero\n      tag_1\n      jumpi\n      0x00\n      dup1\n      revert\n    tag_1:\n      pop\n      jumpi(tag_2, lt(calldatasize, 0x04))\n      shr(0xe0, calldataload(0x00))\n      dup1\n      0x6374cc00\n      gt\n      tag_16\n      jumpi\n      dup1\n      0xadca9b72\n      gt\n      tag_17\n      jumpi\n      dup1\n      0xadca9b72\n      eq\n      tag_12\n      jumpi\n      dup1\n      0xbf856895\n      eq\n      tag_13\n      jumpi\n      dup1\n      0xcd3daf9d\n      eq\n      tag_14\n      jumpi\n      dup1\n      0xdf136d65\n      eq\n      tag_15\n      jumpi\n      jump(tag_2)\n    tag_17:\n      dup1\n      0x6374cc00\n      eq\n      tag_9\n      jumpi\n      dup1\n      0x8b876347\n      eq\n      tag_10\n      jumpi\n      dup1\n      0xa694fc3a\n      eq\n      tag_11\n      jumpi\n      jump(tag_2)\n    tag_16:\n      dup1\n      0x8cc262\n      eq\n      tag_3\n      jumpi\n      dup1\n      0x0700037d\n      eq\n      tag_4\n      jumpi\n      dup1\n      0x2e1a7d4d\n      eq\n      tag_5\n      jumpi\n      dup1\n      0x3d18b912\n      eq\n      tag_6\n      jumpi\n      dup1\n      0x5997bb37\n      eq\n      tag_7\n      jumpi\n      dup1\n      0x60217267\n      eq\n      tag_8\n      jumpi\n    tag_2:\n      0x00\n      dup1\n      revert\n        /* \"contracts/Staking.sol\":1363:1521  function earned(address account) public view returns(uint){... */\n    tag_3:\n      tag_18\n      0x04\n      dup1\n      calldatasize\n      sub\n      dup2\n      add\n      swap1\n      tag_19\n      swap2\n      swap1\n      tag_20\n      jump\t// in\n    tag_19:\n      tag_21\n      jump\t// in\n    tag_18:\n      mload(0x40)\n      tag_22\n      swap2\n      swap1\n      tag_23\n      jump\t// in\n    tag_22:\n      mload(0x40)\n      dup1\n      swap2\n      sub\n      swap1\n      return\n        /* \"contracts/Staking.sol\":576:613  mapping(address=>uint) public rewards */\n    tag_4:\n      tag_24\n      0x04\n      dup1\n      calldatasize\n      sub\n      dup2\n      add\n      swap1\n      tag_25\n      swap2\n      swap1\n      tag_20\n      jump\t// in\n    tag_25:\n      tag_26\n      jump\t// in\n    tag_24:\n      mload(0x40)\n      tag_27\n      swap2\n      swap1\n      tag_23\n      jump\t// in\n    tag_27:\n      mload(0x40)\n      dup1\n      swap2\n      sub\n      swap1\n      return\n        /* \"contracts/Staking.sol\":2197:2580  function withdraw(uint amount)external nonReentrant updateReward(msg.sender) {... */\n    tag_5:\n      tag_28\n      0x04\n      dup1\n      calldatasize\n      sub\n      dup2\n      add\n      swap1\n      tag_29\n      swap2\n      swap1\n      tag_30\n      jump\t// in\n    tag_29:\n      tag_31\n      jump\t// in\n    tag_28:\n      stop\n        /* \"contracts/Staking.sol\":2593:2950  function getReward()external nonReentrant updateReward(msg.sender) {... */\n    tag_6:\n      tag_32\n      tag_33\n      jump\t// in\n    tag_32:\n      stop\n        /* \"contracts/Staking.sol\":372:407  uint public constant REWARD_RATE=10 */\n    tag_7:\n      tag_34\n      tag_35\n      jump\t// in\n    tag_34:\n      mload(0x40)\n      tag_36\n      swap2\n      swap1\n      tag_23\n      jump\t// in\n    tag_36:\n      mload(0x40)\n      dup1\n      swap2\n      sub\n      swap1\n      return\n        /* \"contracts/Staking.sol\":526:569  mapping(address=>uint) public stakedBalance */\n    tag_8:\n      tag_37\n      0x04\n      dup1\n      calldatasize\n      sub\n      dup2\n      add\n      swap1\n      tag_38\n      swap2\n      swap1\n      tag_20\n      jump\t// in\n    tag_38:\n      tag_39\n      jump\t// in\n    tag_37:\n      mload(0x40)\n      tag_40\n      swap2\n      swap1\n      tag_23\n      jump\t// in\n    tag_40:\n      mload(0x40)\n      dup1\n      swap2\n      sub\n      swap1\n      return\n        /* \"contracts/Staking.sol\":336:363  IERC20 public s_rewardToken */\n    tag_9:\n      tag_41\n      tag_42\n      jump\t// in\n    tag_41:\n      mload(0x40)\n      tag_43\n      swap2\n      swap1\n      tag_44\n      jump\t// in\n    tag_43:\n      mload(0x40)\n      dup1\n      swap2\n      sub\n      swap1\n      return\n        /* \"contracts/Staking.sol\":620:672  mapping(address=>uint) public userRewardPerTokenPaid */\n    tag_10:\n      tag_45\n      0x04\n      dup1\n      calldatasize\n      sub\n      dup2\n      add\n      swap1\n      tag_46\n      swap2\n      swap1\n      tag_20\n      jump\t// in\n    tag_46:\n      tag_47\n      jump\t// in\n    tag_45:\n      mload(0x40)\n      tag_48\n      swap2\n      swap1\n      tag_23\n      jump\t// in\n    tag_48:\n      mload(0x40)\n      dup1\n      swap2\n      sub\n      swap1\n      return\n        /* \"contracts/Staking.sol\":1791:2189  function stake(uint amount)external nonReentrant updateReward(msg.sender) {... */\n    tag_11:\n      tag_49\n      0x04\n      dup1\n      calldatasize\n      sub\n      dup2\n      add\n      swap1\n      tag_50\n      swap2\n      swap1\n      tag_30\n      jump\t// in\n    tag_50:\n      tag_51\n      jump\t// in\n    tag_49:\n      stop\n        /* \"contracts/Staking.sol\":301:329  IERC20 public s_stakingToken */\n    tag_12:\n      tag_52\n      tag_53\n      jump\t// in\n    tag_52:\n      mload(0x40)\n      tag_54\n      swap2\n      swap1\n      tag_44\n      jump\t// in\n    tag_54:\n      mload(0x40)\n      dup1\n      swap2\n      sub\n      swap1\n      return\n        /* \"contracts/Staking.sol\":490:517  uint public lastUpdatedTime */\n    tag_13:\n      tag_55\n      tag_56\n      jump\t// in\n    tag_55:\n      mload(0x40)\n      tag_57\n      swap2\n      swap1\n      tag_23\n      jump\t// in\n    tag_57:\n      mload(0x40)\n      dup1\n      swap2\n      sub\n      swap1\n      return\n        /* \"contracts/Staking.sol\":1049:1355  function rewardPerToken() public view returns(uint){... */\n    tag_14:\n      tag_58\n      tag_59\n      jump\t// in\n    tag_58:\n      mload(0x40)\n      tag_60\n      swap2\n      swap1\n      tag_23\n      jump\t// in\n    tag_60:\n      mload(0x40)\n      dup1\n      swap2\n      sub\n      swap1\n      return\n        /* \"contracts/Staking.sol\":451:483  uint public rewardPerTokenStored */\n    tag_15:\n      tag_61\n      tag_62\n      jump\t// in\n    tag_61:\n      mload(0x40)\n      tag_63\n      swap2\n      swap1\n      tag_23\n      jump\t// in\n    tag_63:\n      mload(0x40)\n      dup1\n      swap2\n      sub\n      swap1\n      return\n        /* \"contracts/Staking.sol\":1363:1521  function earned(address account) public view returns(uint){... */\n    tag_21:\n        /* \"contracts/Staking.sol\":1416:1420  uint */\n      0x00\n        /* \"contracts/Staking.sol\":1481:1503  userRewardPerTokenPaid */\n      0x08\n        /* \"contracts/Staking.sol\":1481:1512  userRewardPerTokenPaid[account] */\n      0x00\n        /* \"contracts/Staking.sol\":1504:1511  account */\n      dup4\n        /* \"contracts/Staking.sol\":1481:1512  userRewardPerTokenPaid[account] */\n      0xffffffffffffffffffffffffffffffffffffffff\n      and\n      0xffffffffffffffffffffffffffffffffffffffff\n      and\n      dup2\n      mstore\n      0x20\n      add\n      swap1\n      dup2\n      mstore\n      0x20\n      add\n      0x00\n      keccak256\n      sload\n        /* \"contracts/Staking.sol\":1464:1480  rewardPerToken() */\n      tag_65\n        /* \"contracts/Staking.sol\":1464:1478  rewardPerToken */\n      tag_59\n        /* \"contracts/Staking.sol\":1464:1480  rewardPerToken() */\n      jump\t// in\n    tag_65:\n        /* \"contracts/Staking.sol\":1464:1512  rewardPerToken()-userRewardPerTokenPaid[account] */\n      tag_66\n      swap2\n      swap1\n      tag_67\n      jump\t// in\n    tag_66:\n        /* \"contracts/Staking.sol\":1439:1452  stakedBalance */\n      0x06\n        /* \"contracts/Staking.sol\":1439:1461  stakedBalance[account] */\n      0x00\n        /* \"contracts/Staking.sol\":1453:1460  account */\n      dup5\n        /* \"contracts/Staking.sol\":1439:1461  stakedBalance[account] */\n      0xffffffffffffffffffffffffffffffffffffffff\n      and\n      0xffffffffffffffffffffffffffffffffffffffff\n      and\n      dup2\n      mstore\n      0x20\n      add\n      swap1\n      dup2\n      mstore\n      0x20\n      add\n      0x00\n      keccak256\n      sload\n        /* \"contracts/Staking.sol\":1438:1513  (stakedBalance[account])*(rewardPerToken()-userRewardPerTokenPaid[account]) */\n      tag_68\n      swap2\n      swap1\n      tag_69\n      jump\t// in\n    tag_68:\n        /* \"contracts/Staking.sol\":1432:1513  return(stakedBalance[account])*(rewardPerToken()-userRewardPerTokenPaid[account]) */\n      swap1\n      pop\n        /* \"contracts/Staking.sol\":1363:1521  function earned(address account) public view returns(uint){... */\n      swap2\n      swap1\n      pop\n      jump\t// out\n        /* \"contracts/Staking.sol\":576:613  mapping(address=>uint) public rewards */\n    tag_26:\n      mstore(0x20, 0x07)\n      dup1\n      0x00\n      mstore\n      keccak256(0x00, 0x40)\n      0x00\n      swap2\n      pop\n      swap1\n      pop\n      sload\n      dup2\n      jump\t// out\n        /* \"contracts/Staking.sol\":2197:2580  function withdraw(uint amount)external nonReentrant updateReward(msg.sender) {... */\n    tag_31:\n        /* \"@openzeppelin/contracts/security/ReentrancyGuard.sol\":2261:2282  _nonReentrantBefore() */\n      tag_71\n        /* \"@openzeppelin/contracts/security/ReentrancyGuard.sol\":2261:2280  _nonReentrantBefore */\n      tag_72\n        /* \"@openzeppelin/contracts/security/ReentrancyGuard.sol\":2261:2282  _nonReentrantBefore() */\n      jump\t// in\n    tag_71:\n        /* \"contracts/Staking.sol\":2262:2272  msg.sender */\n      caller\n        /* \"contracts/Staking.sol\":1599:1615  rewardPerToken() */\n      tag_74\n        /* \"contracts/Staking.sol\":1599:1613  rewardPerToken */\n      tag_59\n        /* \"contracts/Staking.sol\":1599:1615  rewardPerToken() */\n      jump\t// in\n    tag_74:\n        /* \"contracts/Staking.sol\":1578:1598  rewardPerTokenStored */\n      0x04\n        /* \"contracts/Staking.sol\":1578:1615  rewardPerTokenStored=rewardPerToken() */\n      dup2\n      swap1\n      sstore\n      pop\n        /* \"contracts/Staking.sol\":1642:1657  block.timestamp */\n      timestamp\n        /* \"contracts/Staking.sol\":1626:1641  lastUpdatedTime */\n      0x05\n        /* \"contracts/Staking.sol\":1626:1657  lastUpdatedTime=block.timestamp */\n      dup2\n      swap1\n      sstore\n      pop\n        /* \"contracts/Staking.sol\":1685:1700  earned(account) */\n      tag_75\n        /* \"contracts/Staking.sol\":1692:1699  account */\n      dup2\n        /* \"contracts/Staking.sol\":1685:1691  earned */\n      tag_21\n        /* \"contracts/Staking.sol\":1685:1700  earned(account) */\n      jump\t// in\n    tag_75:\n        /* \"contracts/Staking.sol\":1668:1675  rewards */\n      0x07\n        /* \"contracts/Staking.sol\":1668:1684  rewards[account] */\n      0x00\n        /* \"contracts/Staking.sol\":1676:1683  account */\n      dup4\n        /* \"contracts/Staking.sol\":1668:1684  rewards[account] */\n      0xffffffffffffffffffffffffffffffffffffffff\n      and\n      0xffffffffffffffffffffffffffffffffffffffff\n      and\n      dup2\n      mstore\n      0x20\n      add\n      swap1\n      dup2\n      mstore\n      0x20\n      add\n      0x00\n      keccak256\n        /* \"contracts/Staking.sol\":1668:1700  rewards[account]=earned(account) */\n      dup2\n      swap1\n      sstore\n      pop\n        /* \"contracts/Staking.sol\":1743:1763  rewardPerTokenStored */\n      sload(0x04)\n        /* \"contracts/Staking.sol\":1711:1733  userRewardPerTokenPaid */\n      0x08\n        /* \"contracts/Staking.sol\":1711:1742  userRewardPerTokenPaid[account] */\n      0x00\n        /* \"contracts/Staking.sol\":1734:1741  account */\n      dup4\n        /* \"contracts/Staking.sol\":1711:1742  userRewardPerTokenPaid[account] */\n      0xffffffffffffffffffffffffffffffffffffffff\n      and\n      0xffffffffffffffffffffffffffffffffffffffff\n      and\n      dup2\n      mstore\n      0x20\n      add\n      swap1\n      dup2\n      mstore\n      0x20\n      add\n      0x00\n      keccak256\n        /* \"contracts/Staking.sol\":1711:1763  userRewardPerTokenPaid[account]=rewardPerTokenStored */\n      dup2\n      swap1\n      sstore\n      pop\n        /* \"contracts/Staking.sol\":2300:2301  0 */\n      0x00\n        /* \"contracts/Staking.sol\":2293:2299  amount */\n      dup3\n        /* \"contracts/Staking.sol\":2293:2301  amount>0 */\n      gt\n        /* \"contracts/Staking.sol\":2285:2337  require(amount>0,\"Amount must be greater than zero\") */\n      tag_77\n      jumpi\n      mload(0x40)\n      0x08c379a000000000000000000000000000000000000000000000000000000000\n      dup2\n      mstore\n      0x04\n      add\n      tag_78\n      swap1\n      tag_79\n      jump\t// in\n    tag_78:\n      mload(0x40)\n      dup1\n      swap2\n      sub\n      swap1\n      revert\n    tag_77:\n        /* \"contracts/Staking.sol\":2367:2373  amount */\n      dup2\n        /* \"contracts/Staking.sol\":2348:2365  totalStakedTokens */\n      0x03\n      0x00\n        /* \"contracts/Staking.sol\":2348:2373  totalStakedTokens-=amount */\n      dup3\n      dup3\n      sload\n      tag_80\n      swap2\n      swap1\n      tag_67\n      jump\t// in\n    tag_80:\n      swap3\n      pop\n      pop\n      dup2\n      swap1\n      sstore\n      pop\n        /* \"contracts/Staking.sol\":2411:2417  amount */\n      dup2\n        /* \"contracts/Staking.sol\":2384:2397  stakedBalance */\n      0x06\n        /* \"contracts/Staking.sol\":2384:2409  stakedBalance[msg.sender] */\n      0x00\n        /* \"contracts/Staking.sol\":2398:2408  msg.sender */\n      caller\n        /* \"contracts/Staking.sol\":2384:2409  stakedBalance[msg.sender] */\n      0xffffffffffffffffffffffffffffffffffffffff\n      and\n      0xffffffffffffffffffffffffffffffffffffffff\n      and\n      dup2\n      mstore\n      0x20\n      add\n      swap1\n      dup2\n      mstore\n      0x20\n      add\n      0x00\n      keccak256\n      0x00\n        /* \"contracts/Staking.sol\":2384:2417  stakedBalance[msg.sender]-=amount */\n      dup3\n      dup3\n      sload\n      tag_81\n      swap2\n      swap1\n      tag_67\n      jump\t// in\n    tag_81:\n      swap3\n      pop\n      pop\n      dup2\n      swap1\n      sstore\n      pop\n        /* \"contracts/Staking.sol\":2451:2457  amount */\n      dup2\n        /* \"contracts/Staking.sol\":2440:2450  msg.sender */\n      caller\n        /* \"contracts/Staking.sol\":2433:2458  Staked(msg.sender,amount) */\n      0xffffffffffffffffffffffffffffffffffffffff\n      and\n      0x9e71bc8eea02a63969f509818f2dafb9254532904319f9dbda79b67bd34a5f3d\n      mload(0x40)\n      mload(0x40)\n      dup1\n      swap2\n      sub\n      swap1\n      log3\n        /* \"contracts/Staking.sol\":2471:2483  bool success */\n      0x00\n        /* \"contracts/Staking.sol\":2485:2499  s_stakingToken */\n      0x01\n      0x00\n      swap1\n      sload\n      swap1\n      0x0100\n      exp\n      swap1\n      div\n      0xffffffffffffffffffffffffffffffffffffffff\n      and\n        /* \"contracts/Staking.sol\":2485:2508  s_stakingToken.transfer */\n      0xffffffffffffffffffffffffffffffffffffffff\n      and\n      0xa9059cbb\n        /* \"contracts/Staking.sol\":2509:2519  msg.sender */\n      caller\n        /* \"contracts/Staking.sol\":2520:2526  amount */\n      dup6\n        /* \"contracts/Staking.sol\":2485:2527  s_stakingToken.transfer(msg.sender,amount) */\n      mload(0x40)\n      dup4\n      0xffffffff\n      and\n      0xe0\n      shl\n      dup2\n      mstore\n      0x04\n      add\n      tag_82\n      swap3\n      swap2\n      swap1\n      tag_83\n      jump\t// in\n    tag_82:\n      0x20\n      mload(0x40)\n      dup1\n      dup4\n      sub\n      dup2\n      0x00\n      dup8\n      gas\n      call\n      iszero\n      dup1\n      iszero\n      tag_85\n      jumpi\n      returndatasize\n      0x00\n      dup1\n      returndatacopy\n      revert(0x00, returndatasize)\n    tag_85:\n      pop\n      pop\n      pop\n      pop\n      mload(0x40)\n      returndatasize\n      not(0x1f)\n      0x1f\n      dup3\n      add\n      and\n      dup3\n      add\n      dup1\n      0x40\n      mstore\n      pop\n      dup2\n      add\n      swap1\n      tag_86\n      swap2\n      swap1\n      tag_87\n      jump\t// in\n    tag_86:\n        /* \"contracts/Staking.sol\":2471:2527  bool success= s_stakingToken.transfer(msg.sender,amount) */\n      swap1\n      pop\n        /* \"contracts/Staking.sol\":2546:2553  success */\n      dup1\n        /* \"contracts/Staking.sol\":2538:2572  require(success,\"Transfer failed\") */\n      tag_88\n      jumpi\n      mload(0x40)\n      0x08c379a000000000000000000000000000000000000000000000000000000000\n      dup2\n      mstore\n      0x04\n      add\n      tag_89\n      swap1\n      tag_90\n      jump\t// in\n    tag_89:\n      mload(0x40)\n      dup1\n      swap2\n      sub\n      swap1\n      revert\n    tag_88:\n        /* \"contracts/Staking.sol\":2274:2580  {... */\n      pop\n        /* \"@openzeppelin/contracts/security/ReentrancyGuard.sol\":2292:2293  _ */\n      pop\n        /* \"@openzeppelin/contracts/security/ReentrancyGuard.sol\":2303:2323  _nonReentrantAfter() */\n      tag_91\n        /* \"@openzeppelin/contracts/security/ReentrancyGuard.sol\":2303:2321  _nonReentrantAfter */\n      tag_92\n        /* \"@openzeppelin/contracts/security/ReentrancyGuard.sol\":2303:2323  _nonReentrantAfter() */\n      jump\t// in\n    tag_91:\n        /* \"contracts/Staking.sol\":2197:2580  function withdraw(uint amount)external nonReentrant updateReward(msg.sender) {... */\n      pop\n      jump\t// out\n        /* \"contracts/Staking.sol\":2593:2950  function getReward()external nonReentrant updateReward(msg.sender) {... */\n    tag_33:\n        /* \"@openzeppelin/contracts/security/ReentrancyGuard.sol\":2261:2282  _nonReentrantBefore() */\n      tag_94\n        /* \"@openzeppelin/contracts/security/ReentrancyGuard.sol\":2261:2280  _nonReentrantBefore */\n      tag_72\n        /* \"@openzeppelin/contracts/security/ReentrancyGuard.sol\":2261:2282  _nonReentrantBefore() */\n      jump\t// in\n    tag_94:\n        /* \"contracts/Staking.sol\":2648:2658  msg.sender */\n      caller\n        /* \"contracts/Staking.sol\":1599:1615  rewardPerToken() */\n      tag_96\n        /* \"contracts/Staking.sol\":1599:1613  rewardPerToken */\n      tag_59\n        /* \"contracts/Staking.sol\":1599:1615  rewardPerToken() */\n      jump\t// in\n    tag_96:\n        /* \"contracts/Staking.sol\":1578:1598  rewardPerTokenStored */\n      0x04\n        /* \"contracts/Staking.sol\":1578:1615  rewardPerTokenStored=rewardPerToken() */\n      dup2\n      swap1\n      sstore\n      pop\n        /* \"contracts/Staking.sol\":1642:1657  block.timestamp */\n      timestamp\n        /* \"contracts/Staking.sol\":1626:1641  lastUpdatedTime */\n      0x05\n        /* \"contracts/Staking.sol\":1626:1657  lastUpdatedTime=block.timestamp */\n      dup2\n      swap1\n      sstore\n      pop\n        /* \"contracts/Staking.sol\":1685:1700  earned(account) */\n      tag_97\n        /* \"contracts/Staking.sol\":1692:1699  account */\n      dup2\n        /* \"contracts/Staking.sol\":1685:1691  earned */\n      tag_21\n        /* \"contracts/Staking.sol\":1685:1700  earned(account) */\n      jump\t// in\n    tag_97:\n        /* \"contracts/Staking.sol\":1668:1675  rewards */\n      0x07\n        /* \"contracts/Staking.sol\":1668:1684  rewards[account] */\n      0x00\n        /* \"contracts/Staking.sol\":1676:1683  account */\n      dup4\n        /* \"contracts/Staking.sol\":1668:1684  rewards[account] */\n      0xffffffffffffffffffffffffffffffffffffffff\n      and\n      0xffffffffffffffffffffffffffffffffffffffff\n      and\n      dup2\n      mstore\n      0x20\n      add\n      swap1\n      dup2\n      mstore\n      0x20\n      add\n      0x00\n      keccak256\n        /* \"contracts/Staking.sol\":1668:1700  rewards[account]=earned(account) */\n      dup2\n      swap1\n      sstore\n      pop\n        /* \"contracts/Staking.sol\":1743:1763  rewardPerTokenStored */\n      sload(0x04)\n        /* \"contracts/Staking.sol\":1711:1733  userRewardPerTokenPaid */\n      0x08\n        /* \"contracts/Staking.sol\":1711:1742  userRewardPerTokenPaid[account] */\n      0x00\n        /* \"contracts/Staking.sol\":1734:1741  account */\n      dup4\n        /* \"contracts/Staking.sol\":1711:1742  userRewardPerTokenPaid[account] */\n      0xffffffffffffffffffffffffffffffffffffffff\n      and\n      0xffffffffffffffffffffffffffffffffffffffff\n      and\n      dup2\n      mstore\n      0x20\n      add\n      swap1\n      dup2\n      mstore\n      0x20\n      add\n      0x00\n      keccak256\n        /* \"contracts/Staking.sol\":1711:1763  userRewardPerTokenPaid[account]=rewardPerTokenStored */\n      dup2\n      swap1\n      sstore\n      pop\n        /* \"contracts/Staking.sol\":2670:2681  uint reward */\n      0x00\n        /* \"contracts/Staking.sol\":2682:2689  rewards */\n      0x07\n        /* \"contracts/Staking.sol\":2682:2701  rewards[msg.sender] */\n      0x00\n        /* \"contracts/Staking.sol\":2690:2700  msg.sender */\n      caller\n        /* \"contracts/Staking.sol\":2682:2701  rewards[msg.sender] */\n      0xffffffffffffffffffffffffffffffffffffffff\n      and\n      0xffffffffffffffffffffffffffffffffffffffff\n      and\n      dup2\n      mstore\n      0x20\n      add\n      swap1\n      dup2\n      mstore\n      0x20\n      add\n      0x00\n      keccak256\n      sload\n        /* \"contracts/Staking.sol\":2670:2701  uint reward=rewards[msg.sender] */\n      swap1\n      pop\n        /* \"contracts/Staking.sol\":2726:2727  0 */\n      0x00\n        /* \"contracts/Staking.sol\":2719:2725  reward */\n      dup2\n        /* \"contracts/Staking.sol\":2719:2727  reward>0 */\n      gt\n        /* \"contracts/Staking.sol\":2711:2749  require(reward>0,\"Norewards to claim\") */\n      tag_99\n      jumpi\n      mload(0x40)\n      0x08c379a000000000000000000000000000000000000000000000000000000000\n      dup2\n      mstore\n      0x04\n      add\n      tag_100\n      swap1\n      tag_101\n      jump\t// in\n    tag_100:\n      mload(0x40)\n      dup1\n      swap2\n      sub\n      swap1\n      revert\n    tag_99:\n        /* \"contracts/Staking.sol\":2779:2780  0 */\n      0x00\n        /* \"contracts/Staking.sol\":2759:2766  rewards */\n      0x07\n        /* \"contracts/Staking.sol\":2759:2778  rewards[msg.sender] */\n      0x00\n        /* \"contracts/Staking.sol\":2767:2777  msg.sender */\n      caller\n        /* \"contracts/Staking.sol\":2759:2778  rewards[msg.sender] */\n      0xffffffffffffffffffffffffffffffffffffffff\n      and\n      0xffffffffffffffffffffffffffffffffffffffff\n      and\n      dup2\n      mstore\n      0x20\n      add\n      swap1\n      dup2\n      mstore\n      0x20\n      add\n      0x00\n      keccak256\n        /* \"contracts/Staking.sol\":2759:2780  rewards[msg.sender]=0 */\n      dup2\n      swap1\n      sstore\n      pop\n        /* \"contracts/Staking.sol\":2823:2829  reward */\n      dup1\n        /* \"contracts/Staking.sol\":2811:2821  msg.sender */\n      caller\n        /* \"contracts/Staking.sol\":2796:2830  RewardsClaimed(msg.sender, reward) */\n      0xffffffffffffffffffffffffffffffffffffffff\n      and\n      0xfc30cddea38e2bf4d6ea7d3f9ed3b6ad7f176419f4963bd81318067a4aee73fe\n      mload(0x40)\n      mload(0x40)\n      dup1\n      swap2\n      sub\n      swap1\n      log3\n        /* \"contracts/Staking.sol\":2841:2853  bool success */\n      0x00\n        /* \"contracts/Staking.sol\":2855:2869  s_stakingToken */\n      0x01\n      0x00\n      swap1\n      sload\n      swap1\n      0x0100\n      exp\n      swap1\n      div\n      0xffffffffffffffffffffffffffffffffffffffff\n      and\n        /* \"contracts/Staking.sol\":2855:2878  s_stakingToken.transfer */\n      0xffffffffffffffffffffffffffffffffffffffff\n      and\n      0xa9059cbb\n        /* \"contracts/Staking.sol\":2879:2889  msg.sender */\n      caller\n        /* \"contracts/Staking.sol\":2890:2896  reward */\n      dup5\n        /* \"contracts/Staking.sol\":2855:2897  s_stakingToken.transfer(msg.sender,reward) */\n      mload(0x40)\n      dup4\n      0xffffffff\n      and\n      0xe0\n      shl\n      dup2\n      mstore\n      0x04\n      add\n      tag_102\n      swap3\n      swap2\n      swap1\n      tag_83\n      jump\t// in\n    tag_102:\n      0x20\n      mload(0x40)\n      dup1\n      dup4\n      sub\n      dup2\n      0x00\n      dup8\n      gas\n      call\n      iszero\n      dup1\n      iszero\n      tag_104\n      jumpi\n      returndatasize\n      0x00\n      dup1\n      returndatacopy\n      revert(0x00, returndatasize)\n    tag_104:\n      pop\n      pop\n      pop\n      pop\n      mload(0x40)\n      returndatasize\n      not(0x1f)\n      0x1f\n      dup3\n      add\n      and\n      dup3\n      add\n      dup1\n      0x40\n      mstore\n      pop\n      dup2\n      add\n      swap1\n      tag_105\n      swap2\n      swap1\n      tag_87\n      jump\t// in\n    tag_105:\n        /* \"contracts/Staking.sol\":2841:2897  bool success= s_stakingToken.transfer(msg.sender,reward) */\n      swap1\n      pop\n        /* \"contracts/Staking.sol\":2916:2923  success */\n      dup1\n        /* \"contracts/Staking.sol\":2908:2942  require(success,\"Transfer failed\") */\n      tag_106\n      jumpi\n      mload(0x40)\n      0x08c379a000000000000000000000000000000000000000000000000000000000\n      dup2\n      mstore\n      0x04\n      add\n      tag_107\n      swap1\n      tag_90\n      jump\t// in\n    tag_107:\n      mload(0x40)\n      dup1\n      swap2\n      sub\n      swap1\n      revert\n    tag_106:\n        /* \"contracts/Staking.sol\":2660:2950  {... */\n      pop\n      pop\n        /* \"@openzeppelin/contracts/security/ReentrancyGuard.sol\":2292:2293  _ */\n      pop\n        /* \"@openzeppelin/contracts/security/ReentrancyGuard.sol\":2303:2323  _nonReentrantAfter() */\n      tag_108\n        /* \"@openzeppelin/contracts/security/ReentrancyGuard.sol\":2303:2321  _nonReentrantAfter */\n      tag_92\n        /* \"@openzeppelin/contracts/security/ReentrancyGuard.sol\":2303:2323  _nonReentrantAfter() */\n      jump\t// in\n    tag_108:\n        /* \"contracts/Staking.sol\":2593:2950  function getReward()external nonReentrant updateReward(msg.sender) {... */\n      jump\t// out\n        /* \"contracts/Staking.sol\":372:407  uint public constant REWARD_RATE=10 */\n    tag_35:\n        /* \"contracts/Staking.sol\":405:407  10 */\n      0x0a\n        /* \"contracts/Staking.sol\":372:407  uint public constant REWARD_RATE=10 */\n      dup2\n      jump\t// out\n        /* \"contracts/Staking.sol\":526:569  mapping(address=>uint) public stakedBalance */\n    tag_39:\n      mstore(0x20, 0x06)\n      dup1\n      0x00\n      mstore\n      keccak256(0x00, 0x40)\n      0x00\n      swap2\n      pop\n      swap1\n      pop\n      sload\n      dup2\n      jump\t// out\n        /* \"contracts/Staking.sol\":336:363  IERC20 public s_rewardToken */\n    tag_42:\n      0x02\n      0x00\n      swap1\n      sload\n      swap1\n      0x0100\n      exp\n      swap1\n      div\n      0xffffffffffffffffffffffffffffffffffffffff\n      and\n      dup2\n      jump\t// out\n        /* \"contracts/Staking.sol\":620:672  mapping(address=>uint) public userRewardPerTokenPaid */\n    tag_47:\n      mstore(0x20, 0x08)\n      dup1\n      0x00\n      mstore\n      keccak256(0x00, 0x40)\n      0x00\n      swap2\n      pop\n      swap1\n      pop\n      sload\n      dup2\n      jump\t// out\n        /* \"contracts/Staking.sol\":1791:2189  function stake(uint amount)external nonReentrant updateReward(msg.sender) {... */\n    tag_51:\n        /* \"@openzeppelin/contracts/security/ReentrancyGuard.sol\":2261:2282  _nonReentrantBefore() */\n      tag_110\n        /* \"@openzeppelin/contracts/security/ReentrancyGuard.sol\":2261:2280  _nonReentrantBefore */\n      tag_72\n        /* \"@openzeppelin/contracts/security/ReentrancyGuard.sol\":2261:2282  _nonReentrantBefore() */\n      jump\t// in\n    tag_110:\n        /* \"contracts/Staking.sol\":1853:1863  msg.sender */\n      caller\n        /* \"contracts/Staking.sol\":1599:1615  rewardPerToken() */\n      tag_112\n        /* \"contracts/Staking.sol\":1599:1613  rewardPerToken */\n      tag_59\n        /* \"contracts/Staking.sol\":1599:1615  rewardPerToken() */\n      jump\t// in\n    tag_112:\n        /* \"contracts/Staking.sol\":1578:1598  rewardPerTokenStored */\n      0x04\n        /* \"contracts/Staking.sol\":1578:1615  rewardPerTokenStored=rewardPerToken() */\n      dup2\n      swap1\n      sstore\n      pop\n        /* \"contracts/Staking.sol\":1642:1657  block.timestamp */\n      timestamp\n        /* \"contracts/Staking.sol\":1626:1641  lastUpdatedTime */\n      0x05\n        /* \"contracts/Staking.sol\":1626:1657  lastUpdatedTime=block.timestamp */\n      dup2\n      swap1\n      sstore\n      pop\n        /* \"contracts/Staking.sol\":1685:1700  earned(account) */\n      tag_113\n        /* \"contracts/Staking.sol\":1692:1699  account */\n      dup2\n        /* \"contracts/Staking.sol\":1685:1691  earned */\n      tag_21\n        /* \"contracts/Staking.sol\":1685:1700  earned(account) */\n      jump\t// in\n    tag_113:\n        /* \"contracts/Staking.sol\":1668:1675  rewards */\n      0x07\n        /* \"contracts/Staking.sol\":1668:1684  rewards[account] */\n      0x00\n        /* \"contracts/Staking.sol\":1676:1683  account */\n      dup4\n        /* \"contracts/Staking.sol\":1668:1684  rewards[account] */\n      0xffffffffffffffffffffffffffffffffffffffff\n      and\n      0xffffffffffffffffffffffffffffffffffffffff\n      and\n      dup2\n      mstore\n      0x20\n      add\n      swap1\n      dup2\n      mstore\n      0x20\n      add\n      0x00\n      keccak256\n        /* \"contracts/Staking.sol\":1668:1700  rewards[account]=earned(account) */\n      dup2\n      swap1\n      sstore\n      pop\n        /* \"contracts/Staking.sol\":1743:1763  rewardPerTokenStored */\n      sload(0x04)\n        /* \"contracts/Staking.sol\":1711:1733  userRewardPerTokenPaid */\n      0x08\n        /* \"contracts/Staking.sol\":1711:1742  userRewardPerTokenPaid[account] */\n      0x00\n        /* \"contracts/Staking.sol\":1734:1741  account */\n      dup4\n        /* \"contracts/Staking.sol\":1711:1742  userRewardPerTokenPaid[account] */\n      0xffffffffffffffffffffffffffffffffffffffff\n      and\n      0xffffffffffffffffffffffffffffffffffffffff\n      and\n      dup2\n      mstore\n      0x20\n      add\n      swap1\n      dup2\n      mstore\n      0x20\n      add\n      0x00\n      keccak256\n        /* \"contracts/Staking.sol\":1711:1763  userRewardPerTokenPaid[account]=rewardPerTokenStored */\n      dup2\n      swap1\n      sstore\n      pop\n        /* \"contracts/Staking.sol\":1891:1892  0 */\n      0x00\n        /* \"contracts/Staking.sol\":1884:1890  amount */\n      dup3\n        /* \"contracts/Staking.sol\":1884:1892  amount>0 */\n      gt\n        /* \"contracts/Staking.sol\":1876:1928  require(amount>0,\"Amount must be greater than zero\") */\n      tag_115\n      jumpi\n      mload(0x40)\n      0x08c379a000000000000000000000000000000000000000000000000000000000\n      dup2\n      mstore\n      0x04\n      add\n      tag_116\n      swap1\n      tag_79\n      jump\t// in\n    tag_116:\n      mload(0x40)\n      dup1\n      swap2\n      sub\n      swap1\n      revert\n    tag_115:\n        /* \"contracts/Staking.sol\":1958:1964  amount */\n      dup2\n        /* \"contracts/Staking.sol\":1939:1956  totalStakedTokens */\n      0x03\n      0x00\n        /* \"contracts/Staking.sol\":1939:1964  totalStakedTokens+=amount */\n      dup3\n      dup3\n      sload\n      tag_117\n      swap2\n      swap1\n      tag_118\n      jump\t// in\n    tag_117:\n      swap3\n      pop\n      pop\n      dup2\n      swap1\n      sstore\n      pop\n        /* \"contracts/Staking.sol\":2002:2008  amount */\n      dup2\n        /* \"contracts/Staking.sol\":1975:1988  stakedBalance */\n      0x06\n        /* \"contracts/Staking.sol\":1975:2000  stakedBalance[msg.sender] */\n      0x00\n        /* \"contracts/Staking.sol\":1989:1999  msg.sender */\n      caller\n        /* \"contracts/Staking.sol\":1975:2000  stakedBalance[msg.sender] */\n      0xffffffffffffffffffffffffffffffffffffffff\n      and\n      0xffffffffffffffffffffffffffffffffffffffff\n      and\n      dup2\n      mstore\n      0x20\n      add\n      swap1\n      dup2\n      mstore\n      0x20\n      add\n      0x00\n      keccak256\n      0x00\n        /* \"contracts/Staking.sol\":1975:2008  stakedBalance[msg.sender]+=amount */\n      dup3\n      dup3\n      sload\n      tag_119\n      swap2\n      swap1\n      tag_118\n      jump\t// in\n    tag_119:\n      swap3\n      pop\n      pop\n      dup2\n      swap1\n      sstore\n      pop\n        /* \"contracts/Staking.sol\":2042:2048  amount */\n      dup2\n        /* \"contracts/Staking.sol\":2031:2041  msg.sender */\n      caller\n        /* \"contracts/Staking.sol\":2024:2049  Staked(msg.sender,amount) */\n      0xffffffffffffffffffffffffffffffffffffffff\n      and\n      0x9e71bc8eea02a63969f509818f2dafb9254532904319f9dbda79b67bd34a5f3d\n      mload(0x40)\n      mload(0x40)\n      dup1\n      swap2\n      sub\n      swap1\n      log3\n        /* \"contracts/Staking.sol\":2062:2074  bool success */\n      0x00\n        /* \"contracts/Staking.sol\":2076:2090  s_stakingToken */\n      0x01\n      0x00\n      swap1\n      sload\n      swap1\n      0x0100\n      exp\n      swap1\n      div\n      0xffffffffffffffffffffffffffffffffffffffff\n      and\n        /* \"contracts/Staking.sol\":2076:2103  s_stakingToken.transferFrom */\n      0xffffffffffffffffffffffffffffffffffffffff\n      and\n      0x23b872dd\n        /* \"contracts/Staking.sol\":2104:2114  msg.sender */\n      caller\n        /* \"contracts/Staking.sol\":2123:2127  this */\n      address\n        /* \"contracts/Staking.sol\":2129:2135  amount */\n      dup7\n        /* \"contracts/Staking.sol\":2076:2136  s_stakingToken.transferFrom(msg.sender,address(this),amount) */\n      mload(0x40)\n      dup5\n      0xffffffff\n      and\n      0xe0\n      shl\n      dup2\n      mstore\n      0x04\n      add\n      tag_120\n      swap4\n      swap3\n      swap2\n      swap1\n      tag_121\n      jump\t// in\n    tag_120:\n      0x20\n      mload(0x40)\n      dup1\n      dup4\n      sub\n      dup2\n      0x00\n      dup8\n      gas\n      call\n      iszero\n      dup1\n      iszero\n      tag_123\n      jumpi\n      returndatasize\n      0x00\n      dup1\n      returndatacopy\n      revert(0x00, returndatasize)\n    tag_123:\n      pop\n      pop\n      pop\n      pop\n      mload(0x40)\n      returndatasize\n      not(0x1f)\n      0x1f\n      dup3\n      add\n      and\n      dup3\n      add\n      dup1\n      0x40\n      mstore\n      pop\n      dup2\n      add\n      swap1\n      tag_124\n      swap2\n      swap1\n      tag_87\n      jump\t// in\n    tag_124:\n        /* \"contracts/Staking.sol\":2062:2136  bool success= s_stakingToken.transferFrom(msg.sender,address(this),amount) */\n      swap1\n      pop\n        /* \"contracts/Staking.sol\":2155:2162  success */\n      dup1\n        /* \"contracts/Staking.sol\":2147:2181  require(success,\"Transfer failed\") */\n      tag_125\n      jumpi\n      mload(0x40)\n      0x08c379a000000000000000000000000000000000000000000000000000000000\n      dup2\n      mstore\n      0x04\n      add\n      tag_126\n      swap1\n      tag_90\n      jump\t// in\n    tag_126:\n      mload(0x40)\n      dup1\n      swap2\n      sub\n      swap1\n      revert\n    tag_125:\n        /* \"contracts/Staking.sol\":1865:2189  {... */\n      pop\n        /* \"@openzeppelin/contracts/security/ReentrancyGuard.sol\":2292:2293  _ */\n      pop\n        /* \"@openzeppelin/contracts/security/ReentrancyGuard.sol\":2303:2323  _nonReentrantAfter() */\n      tag_127\n        /* \"@openzeppelin/contracts/security/ReentrancyGuard.sol\":2303:2321  _nonReentrantAfter */\n      tag_92\n        /* \"@openzeppelin/contracts/security/ReentrancyGuard.sol\":2303:2323  _nonReentrantAfter() */\n      jump\t// in\n    tag_127:\n        /* \"contracts/Staking.sol\":1791:2189  function stake(uint amount)external nonReentrant updateReward(msg.sender) {... */\n      pop\n      jump\t// out\n        /* \"contracts/Staking.sol\":301:329  IERC20 public s_stakingToken */\n    tag_53:\n      0x01\n      0x00\n      swap1\n      sload\n      swap1\n      0x0100\n      exp\n      swap1\n      div\n      0xffffffffffffffffffffffffffffffffffffffff\n      and\n      dup2\n      jump\t// out\n        /* \"contracts/Staking.sol\":490:517  uint public lastUpdatedTime */\n    tag_56:\n      sload(0x05)\n      dup2\n      jump\t// out\n        /* \"contracts/Staking.sol\":1049:1355  function rewardPerToken() public view returns(uint){... */\n    tag_59:\n        /* \"contracts/Staking.sol\":1095:1099  uint */\n      0x00\n        /* \"contracts/Staking.sol\":1133:1134  0 */\n      dup1\n        /* \"contracts/Staking.sol\":1114:1131  totalStakedTokens */\n      sload(0x03)\n        /* \"contracts/Staking.sol\":1114:1134  totalStakedTokens==0 */\n      sub\n        /* \"contracts/Staking.sol\":1111:1189  if(totalStakedTokens==0){... */\n      tag_129\n      jumpi\n        /* \"contracts/Staking.sol\":1157:1177  rewardPerTokenStored */\n      sload(0x04)\n        /* \"contracts/Staking.sol\":1150:1177  return rewardPerTokenStored */\n      swap1\n      pop\n      jump(tag_128)\n        /* \"contracts/Staking.sol\":1111:1189  if(totalStakedTokens==0){... */\n    tag_129:\n        /* \"contracts/Staking.sol\":1201:1215  uint totalTime */\n      0x00\n        /* \"contracts/Staking.sol\":1232:1247  lastUpdatedTime */\n      sload(0x05)\n        /* \"contracts/Staking.sol\":1216:1231  block.timestamp */\n      timestamp\n        /* \"contracts/Staking.sol\":1216:1247  block.timestamp-lastUpdatedTime */\n      tag_130\n      swap2\n      swap1\n      tag_67\n      jump\t// in\n    tag_130:\n        /* \"contracts/Staking.sol\":1201:1247  uint totalTime=block.timestamp-lastUpdatedTime */\n      swap1\n      pop\n        /* \"contracts/Staking.sol\":1258:1275  uint totalRewards */\n      0x00\n        /* \"contracts/Staking.sol\":1288:1297  totalTime */\n      dup2\n        /* \"contracts/Staking.sol\":405:407  10 */\n      0x0a\n        /* \"contracts/Staking.sol\":1276:1297  REWARD_RATE*totalTime */\n      tag_131\n      swap2\n      swap1\n      tag_69\n      jump\t// in\n    tag_131:\n        /* \"contracts/Staking.sol\":1258:1297  uint totalRewards=REWARD_RATE*totalTime */\n      swap1\n      pop\n        /* \"contracts/Staking.sol\":1328:1345  totalStakedTokens */\n      sload(0x03)\n        /* \"contracts/Staking.sol\":1315:1327  totalRewards */\n      dup2\n        /* \"contracts/Staking.sol\":1315:1345  totalRewards/totalStakedTokens */\n      tag_132\n      swap2\n      swap1\n      tag_133\n      jump\t// in\n    tag_132:\n        /* \"contracts/Staking.sol\":1308:1345  return totalRewards/totalStakedTokens */\n      swap3\n      pop\n      pop\n      pop\n        /* \"contracts/Staking.sol\":1049:1355  function rewardPerToken() public view returns(uint){... */\n    tag_128:\n      swap1\n      jump\t// out\n        /* \"contracts/Staking.sol\":451:483  uint public rewardPerTokenStored */\n    tag_62:\n      sload(0x04)\n      dup2\n      jump\t// out\n        /* \"@openzeppelin/contracts/security/ReentrancyGuard.sol\":2336:2623  function _nonReentrantBefore() private {... */\n    tag_72:\n        /* \"@openzeppelin/contracts/security/ReentrancyGuard.sol\":1759:1760  2 */\n      0x02\n        /* \"@openzeppelin/contracts/security/ReentrancyGuard.sol\":2468:2475  _status */\n      sload(0x00)\n        /* \"@openzeppelin/contracts/security/ReentrancyGuard.sol\":2468:2487  _status != _ENTERED */\n      sub\n        /* \"@openzeppelin/contracts/security/ReentrancyGuard.sol\":2460:2523  require(_status != _ENTERED, \"ReentrancyGuard: reentrant call\") */\n      tag_135\n      jumpi\n      mload(0x40)\n      0x08c379a000000000000000000000000000000000000000000000000000000000\n      dup2\n      mstore\n      0x04\n      add\n      tag_136\n      swap1\n      tag_137\n      jump\t// in\n    tag_136:\n      mload(0x40)\n      dup1\n      swap2\n      sub\n      swap1\n      revert\n    tag_135:\n        /* \"@openzeppelin/contracts/security/ReentrancyGuard.sol\":1759:1760  2 */\n      0x02\n        /* \"@openzeppelin/contracts/security/ReentrancyGuard.sol\":2598:2605  _status */\n      0x00\n        /* \"@openzeppelin/contracts/security/ReentrancyGuard.sol\":2598:2616  _status = _ENTERED */\n      dup2\n      swap1\n      sstore\n      pop\n        /* \"@openzeppelin/contracts/security/ReentrancyGuard.sol\":2336:2623  function _nonReentrantBefore() private {... */\n      jump\t// out\n        /* \"@openzeppelin/contracts/security/ReentrancyGuard.sol\":2629:2838  function _nonReentrantAfter() private {... */\n    tag_92:\n        /* \"@openzeppelin/contracts/security/ReentrancyGuard.sol\":1716:1717  1 */\n      0x01\n        /* \"@openzeppelin/contracts/security/ReentrancyGuard.sol\":2809:2816  _status */\n      0x00\n        /* \"@openzeppelin/contracts/security/ReentrancyGuard.sol\":2809:2831  _status = _NOT_ENTERED */\n      dup2\n      swap1\n      sstore\n      pop\n        /* \"@openzeppelin/contracts/security/ReentrancyGuard.sol\":2629:2838  function _nonReentrantAfter() private {... */\n      jump\t// out\n        /* \"#utility.yul\":88:205   */\n    tag_140:\n        /* \"#utility.yul\":197:198   */\n      0x00\n        /* \"#utility.yul\":194:195   */\n      dup1\n        /* \"#utility.yul\":187:199   */\n      revert\n        /* \"#utility.yul\":334:460   */\n    tag_142:\n        /* \"#utility.yul\":371:378   */\n      0x00\n        /* \"#utility.yul\":411:453   */\n      0xffffffffffffffffffffffffffffffffffffffff\n        /* \"#utility.yul\":404:409   */\n      dup3\n        /* \"#utility.yul\":400:454   */\n      and\n        /* \"#utility.yul\":389:454   */\n      swap1\n      pop\n        /* \"#utility.yul\":334:460   */\n      swap2\n      swap1\n      pop\n      jump\t// out\n        /* \"#utility.yul\":466:562   */\n    tag_143:\n        /* \"#utility.yul\":503:510   */\n      0x00\n        /* \"#utility.yul\":532:556   */\n      tag_176\n        /* \"#utility.yul\":550:555   */\n      dup3\n        /* \"#utility.yul\":532:556   */\n      tag_142\n      jump\t// in\n    tag_176:\n        /* \"#utility.yul\":521:556   */\n      swap1\n      pop\n        /* \"#utility.yul\":466:562   */\n      swap2\n      swap1\n      pop\n      jump\t// out\n        /* \"#utility.yul\":568:690   */\n    tag_144:\n        /* \"#utility.yul\":641:665   */\n      tag_178\n        /* \"#utility.yul\":659:664   */\n      dup2\n        /* \"#utility.yul\":641:665   */\n      tag_143\n      jump\t// in\n    tag_178:\n        /* \"#utility.yul\":634:639   */\n      dup2\n        /* \"#utility.yul\":631:666   */\n      eq\n        /* \"#utility.yul\":621:684   */\n      tag_179\n      jumpi\n        /* \"#utility.yul\":680:681   */\n      0x00\n        /* \"#utility.yul\":677:678   */\n      dup1\n        /* \"#utility.yul\":670:682   */\n      revert\n        /* \"#utility.yul\":621:684   */\n    tag_179:\n        /* \"#utility.yul\":568:690   */\n      pop\n      jump\t// out\n        /* \"#utility.yul\":696:835   */\n    tag_145:\n        /* \"#utility.yul\":742:747   */\n      0x00\n        /* \"#utility.yul\":780:786   */\n      dup2\n        /* \"#utility.yul\":767:787   */\n      calldataload\n        /* \"#utility.yul\":758:787   */\n      swap1\n      pop\n        /* \"#utility.yul\":796:829   */\n      tag_181\n        /* \"#utility.yul\":823:828   */\n      dup2\n        /* \"#utility.yul\":796:829   */\n      tag_144\n      jump\t// in\n    tag_181:\n        /* \"#utility.yul\":696:835   */\n      swap3\n      swap2\n      pop\n      pop\n      jump\t// out\n        /* \"#utility.yul\":841:1170   */\n    tag_20:\n        /* \"#utility.yul\":900:906   */\n      0x00\n        /* \"#utility.yul\":949:951   */\n      0x20\n        /* \"#utility.yul\":937:946   */\n      dup3\n        /* \"#utility.yul\":928:935   */\n      dup5\n        /* \"#utility.yul\":924:947   */\n      sub\n        /* \"#utility.yul\":920:952   */\n      slt\n        /* \"#utility.yul\":917:1036   */\n      iszero\n      tag_183\n      jumpi\n        /* \"#utility.yul\":955:1034   */\n      tag_184\n      tag_140\n      jump\t// in\n    tag_184:\n        /* \"#utility.yul\":917:1036   */\n    tag_183:\n        /* \"#utility.yul\":1075:1076   */\n      0x00\n        /* \"#utility.yul\":1100:1153   */\n      tag_185\n        /* \"#utility.yul\":1145:1152   */\n      dup5\n        /* \"#utility.yul\":1136:1142   */\n      dup3\n        /* \"#utility.yul\":1125:1134   */\n      dup6\n        /* \"#utility.yul\":1121:1143   */\n      add\n        /* \"#utility.yul\":1100:1153   */\n      tag_145\n      jump\t// in\n    tag_185:\n        /* \"#utility.yul\":1090:1153   */\n      swap2\n      pop\n        /* \"#utility.yul\":1046:1163   */\n      pop\n        /* \"#utility.yul\":841:1170   */\n      swap3\n      swap2\n      pop\n      pop\n      jump\t// out\n        /* \"#utility.yul\":1176:1253   */\n    tag_146:\n        /* \"#utility.yul\":1213:1220   */\n      0x00\n        /* \"#utility.yul\":1242:1247   */\n      dup2\n        /* \"#utility.yul\":1231:1247   */\n      swap1\n      pop\n        /* \"#utility.yul\":1176:1253   */\n      swap2\n      swap1\n      pop\n      jump\t// out\n        /* \"#utility.yul\":1259:1377   */\n    tag_147:\n        /* \"#utility.yul\":1346:1370   */\n      tag_188\n        /* \"#utility.yul\":1364:1369   */\n      dup2\n        /* \"#utility.yul\":1346:1370   */\n      tag_146\n      jump\t// in\n    tag_188:\n        /* \"#utility.yul\":1341:1344   */\n      dup3\n        /* \"#utility.yul\":1334:1371   */\n      mstore\n        /* \"#utility.yul\":1259:1377   */\n      pop\n      pop\n      jump\t// out\n        /* \"#utility.yul\":1383:1605   */\n    tag_23:\n        /* \"#utility.yul\":1476:1480   */\n      0x00\n        /* \"#utility.yul\":1514:1516   */\n      0x20\n        /* \"#utility.yul\":1503:1512   */\n      dup3\n        /* \"#utility.yul\":1499:1517   */\n      add\n        /* \"#utility.yul\":1491:1517   */\n      swap1\n      pop\n        /* \"#utility.yul\":1527:1598   */\n      tag_190\n        /* \"#utility.yul\":1595:1596   */\n      0x00\n        /* \"#utility.yul\":1584:1593   */\n      dup4\n        /* \"#utility.yul\":1580:1597   */\n      add\n        /* \"#utility.yul\":1571:1577   */\n      dup5\n        /* \"#utility.yul\":1527:1598   */\n      tag_147\n      jump\t// in\n    tag_190:\n        /* \"#utility.yul\":1383:1605   */\n      swap3\n      swap2\n      pop\n      pop\n      jump\t// out\n        /* \"#utility.yul\":1611:1733   */\n    tag_148:\n        /* \"#utility.yul\":1684:1708   */\n      tag_192\n        /* \"#utility.yul\":1702:1707   */\n      dup2\n        /* \"#utility.yul\":1684:1708   */\n      tag_146\n      jump\t// in\n    tag_192:\n        /* \"#utility.yul\":1677:1682   */\n      dup2\n        /* \"#utility.yul\":1674:1709   */\n      eq\n        /* \"#utility.yul\":1664:1727   */\n      tag_193\n      jumpi\n        /* \"#utility.yul\":1723:1724   */\n      0x00\n        /* \"#utility.yul\":1720:1721   */\n      dup1\n        /* \"#utility.yul\":1713:1725   */\n      revert\n        /* \"#utility.yul\":1664:1727   */\n    tag_193:\n        /* \"#utility.yul\":1611:1733   */\n      pop\n      jump\t// out\n        /* \"#utility.yul\":1739:1878   */\n    tag_149:\n        /* \"#utility.yul\":1785:1790   */\n      0x00\n        /* \"#utility.yul\":1823:1829   */\n      dup2\n        /* \"#utility.yul\":1810:1830   */\n      calldataload\n        /* \"#utility.yul\":1801:1830   */\n      swap1\n      pop\n        /* \"#utility.yul\":1839:1872   */\n      tag_195\n        /* \"#utility.yul\":1866:1871   */\n      dup2\n        /* \"#utility.yul\":1839:1872   */\n      tag_148\n      jump\t// in\n    tag_195:\n        /* \"#utility.yul\":1739:1878   */\n      swap3\n      swap2\n      pop\n      pop\n      jump\t// out\n        /* \"#utility.yul\":1884:2213   */\n    tag_30:\n        /* \"#utility.yul\":1943:1949   */\n      0x00\n        /* \"#utility.yul\":1992:1994   */\n      0x20\n        /* \"#utility.yul\":1980:1989   */\n      dup3\n        /* \"#utility.yul\":1971:1978   */\n      dup5\n        /* \"#utility.yul\":1967:1990   */\n      sub\n        /* \"#utility.yul\":1963:1995   */\n      slt\n        /* \"#utility.yul\":1960:2079   */\n      iszero\n      tag_197\n      jumpi\n        /* \"#utility.yul\":1998:2077   */\n      tag_198\n      tag_140\n      jump\t// in\n    tag_198:\n        /* \"#utility.yul\":1960:2079   */\n    tag_197:\n        /* \"#utility.yul\":2118:2119   */\n      0x00\n        /* \"#utility.yul\":2143:2196   */\n      tag_199\n        /* \"#utility.yul\":2188:2195   */\n      dup5\n        /* \"#utility.yul\":2179:2185   */\n      dup3\n        /* \"#utility.yul\":2168:2177   */\n      dup6\n        /* \"#utility.yul\":2164:2186   */\n      add\n        /* \"#utility.yul\":2143:2196   */\n      tag_149\n      jump\t// in\n    tag_199:\n        /* \"#utility.yul\":2133:2196   */\n      swap2\n      pop\n        /* \"#utility.yul\":2089:2206   */\n      pop\n        /* \"#utility.yul\":1884:2213   */\n      swap3\n      swap2\n      pop\n      pop\n      jump\t// out\n        /* \"#utility.yul\":2219:2279   */\n    tag_150:\n        /* \"#utility.yul\":2247:2250   */\n      0x00\n        /* \"#utility.yul\":2268:2273   */\n      dup2\n        /* \"#utility.yul\":2261:2273   */\n      swap1\n      pop\n        /* \"#utility.yul\":2219:2279   */\n      swap2\n      swap1\n      pop\n      jump\t// out\n        /* \"#utility.yul\":2285:2427   */\n    tag_151:\n        /* \"#utility.yul\":2335:2344   */\n      0x00\n        /* \"#utility.yul\":2368:2421   */\n      tag_202\n        /* \"#utility.yul\":2386:2420   */\n      tag_203\n        /* \"#utility.yul\":2395:2419   */\n      tag_204\n        /* \"#utility.yul\":2413:2418   */\n      dup5\n        /* \"#utility.yul\":2395:2419   */\n      tag_142\n      jump\t// in\n    tag_204:\n        /* \"#utility.yul\":2386:2420   */\n      tag_150\n      jump\t// in\n    tag_203:\n        /* \"#utility.yul\":2368:2421   */\n      tag_142\n      jump\t// in\n    tag_202:\n        /* \"#utility.yul\":2355:2421   */\n      swap1\n      pop\n        /* \"#utility.yul\":2285:2427   */\n      swap2\n      swap1\n      pop\n      jump\t// out\n        /* \"#utility.yul\":2433:2559   */\n    tag_152:\n        /* \"#utility.yul\":2483:2492   */\n      0x00\n        /* \"#utility.yul\":2516:2553   */\n      tag_206\n        /* \"#utility.yul\":2547:2552   */\n      dup3\n        /* \"#utility.yul\":2516:2553   */\n      tag_151\n      jump\t// in\n    tag_206:\n        /* \"#utility.yul\":2503:2553   */\n      swap1\n      pop\n        /* \"#utility.yul\":2433:2559   */\n      swap2\n      swap1\n      pop\n      jump\t// out\n        /* \"#utility.yul\":2565:2705   */\n    tag_153:\n        /* \"#utility.yul\":2629:2638   */\n      0x00\n        /* \"#utility.yul\":2662:2699   */\n      tag_208\n        /* \"#utility.yul\":2693:2698   */\n      dup3\n        /* \"#utility.yul\":2662:2699   */\n      tag_152\n      jump\t// in\n    tag_208:\n        /* \"#utility.yul\":2649:2699   */\n      swap1\n      pop\n        /* \"#utility.yul\":2565:2705   */\n      swap2\n      swap1\n      pop\n      jump\t// out\n        /* \"#utility.yul\":2711:2870   */\n    tag_154:\n        /* \"#utility.yul\":2812:2863   */\n      tag_210\n        /* \"#utility.yul\":2857:2862   */\n      dup2\n        /* \"#utility.yul\":2812:2863   */\n      tag_153\n      jump\t// in\n    tag_210:\n        /* \"#utility.yul\":2807:2810   */\n      dup3\n        /* \"#utility.yul\":2800:2864   */\n      mstore\n        /* \"#utility.yul\":2711:2870   */\n      pop\n      pop\n      jump\t// out\n        /* \"#utility.yul\":2876:3126   */\n    tag_44:\n        /* \"#utility.yul\":2983:2987   */\n      0x00\n        /* \"#utility.yul\":3021:3023   */\n      0x20\n        /* \"#utility.yul\":3010:3019   */\n      dup3\n        /* \"#utility.yul\":3006:3024   */\n      add\n        /* \"#utility.yul\":2998:3024   */\n      swap1\n      pop\n        /* \"#utility.yul\":3034:3119   */\n      tag_212\n        /* \"#utility.yul\":3116:3117   */\n      0x00\n        /* \"#utility.yul\":3105:3114   */\n      dup4\n        /* \"#utility.yul\":3101:3118   */\n      add\n        /* \"#utility.yul\":3092:3098   */\n      dup5\n        /* \"#utility.yul\":3034:3119   */\n      tag_154\n      jump\t// in\n    tag_212:\n        /* \"#utility.yul\":2876:3126   */\n      swap3\n      swap2\n      pop\n      pop\n      jump\t// out\n        /* \"#utility.yul\":3132:3312   */\n    tag_155:\n        /* \"#utility.yul\":3180:3257   */\n      0x4e487b7100000000000000000000000000000000000000000000000000000000\n        /* \"#utility.yul\":3177:3178   */\n      0x00\n        /* \"#utility.yul\":3170:3258   */\n      mstore\n        /* \"#utility.yul\":3277:3281   */\n      0x11\n        /* \"#utility.yul\":3274:3275   */\n      0x04\n        /* \"#utility.yul\":3267:3282   */\n      mstore\n        /* \"#utility.yul\":3301:3305   */\n      0x24\n        /* \"#utility.yul\":3298:3299   */\n      0x00\n        /* \"#utility.yul\":3291:3306   */\n      revert\n        /* \"#utility.yul\":3318:3512   */\n    tag_67:\n        /* \"#utility.yul\":3358:3362   */\n      0x00\n        /* \"#utility.yul\":3378:3398   */\n      tag_215\n        /* \"#utility.yul\":3396:3397   */\n      dup3\n        /* \"#utility.yul\":3378:3398   */\n      tag_146\n      jump\t// in\n    tag_215:\n        /* \"#utility.yul\":3373:3398   */\n      swap2\n      pop\n        /* \"#utility.yul\":3412:3432   */\n      tag_216\n        /* \"#utility.yul\":3430:3431   */\n      dup4\n        /* \"#utility.yul\":3412:3432   */\n      tag_146\n      jump\t// in\n    tag_216:\n        /* \"#utility.yul\":3407:3432   */\n      swap3\n      pop\n        /* \"#utility.yul\":3456:3457   */\n      dup3\n        /* \"#utility.yul\":3453:3454   */\n      dup3\n        /* \"#utility.yul\":3449:3458   */\n      sub\n        /* \"#utility.yul\":3441:3458   */\n      swap1\n      pop\n        /* \"#utility.yul\":3480:3481   */\n      dup2\n        /* \"#utility.yul\":3474:3478   */\n      dup2\n        /* \"#utility.yul\":3471:3482   */\n      gt\n        /* \"#utility.yul\":3468:3505   */\n      iszero\n      tag_217\n      jumpi\n        /* \"#utility.yul\":3485:3503   */\n      tag_218\n      tag_155\n      jump\t// in\n    tag_218:\n        /* \"#utility.yul\":3468:3505   */\n    tag_217:\n        /* \"#utility.yul\":3318:3512   */\n      swap3\n      swap2\n      pop\n      pop\n      jump\t// out\n        /* \"#utility.yul\":3518:3928   */\n    tag_69:\n        /* \"#utility.yul\":3558:3565   */\n      0x00\n        /* \"#utility.yul\":3581:3601   */\n      tag_220\n        /* \"#utility.yul\":3599:3600   */\n      dup3\n        /* \"#utility.yul\":3581:3601   */\n      tag_146\n      jump\t// in\n    tag_220:\n        /* \"#utility.yul\":3576:3601   */\n      swap2\n      pop\n        /* \"#utility.yul\":3615:3635   */\n      tag_221\n        /* \"#utility.yul\":3633:3634   */\n      dup4\n        /* \"#utility.yul\":3615:3635   */\n      tag_146\n      jump\t// in\n    tag_221:\n        /* \"#utility.yul\":3610:3635   */\n      swap3\n      pop\n        /* \"#utility.yul\":3670:3671   */\n      dup3\n        /* \"#utility.yul\":3667:3668   */\n      dup3\n        /* \"#utility.yul\":3663:3672   */\n      mul\n        /* \"#utility.yul\":3692:3722   */\n      tag_222\n        /* \"#utility.yul\":3710:3721   */\n      dup2\n        /* \"#utility.yul\":3692:3722   */\n      tag_146\n      jump\t// in\n    tag_222:\n        /* \"#utility.yul\":3681:3722   */\n      swap2\n      pop\n        /* \"#utility.yul\":3871:3872   */\n      dup3\n        /* \"#utility.yul\":3862:3869   */\n      dup3\n        /* \"#utility.yul\":3858:3873   */\n      div\n        /* \"#utility.yul\":3855:3856   */\n      dup5\n        /* \"#utility.yul\":3852:3874   */\n      eq\n        /* \"#utility.yul\":3832:3833   */\n      dup4\n        /* \"#utility.yul\":3825:3834   */\n      iszero\n        /* \"#utility.yul\":3805:3888   */\n      or\n        /* \"#utility.yul\":3782:3921   */\n      tag_223\n      jumpi\n        /* \"#utility.yul\":3901:3919   */\n      tag_224\n      tag_155\n      jump\t// in\n    tag_224:\n        /* \"#utility.yul\":3782:3921   */\n    tag_223:\n        /* \"#utility.yul\":3566:3928   */\n      pop\n        /* \"#utility.yul\":3518:3928   */\n      swap3\n      swap2\n      pop\n      pop\n      jump\t// out\n        /* \"#utility.yul\":3934:4103   */\n    tag_156:\n        /* \"#utility.yul\":4018:4029   */\n      0x00\n        /* \"#utility.yul\":4052:4058   */\n      dup3\n        /* \"#utility.yul\":4047:4050   */\n      dup3\n        /* \"#utility.yul\":4040:4059   */\n      mstore\n        /* \"#utility.yul\":4092:4096   */\n      0x20\n        /* \"#utility.yul\":4087:4090   */\n      dup3\n        /* \"#utility.yul\":4083:4097   */\n      add\n        /* \"#utility.yul\":4068:4097   */\n      swap1\n      pop\n        /* \"#utility.yul\":3934:4103   */\n      swap3\n      swap2\n      pop\n      pop\n      jump\t// out\n        /* \"#utility.yul\":4109:4291   */\n    tag_157:\n        /* \"#utility.yul\":4249:4283   */\n      0x416d6f756e74206d7573742062652067726561746572207468616e207a65726f\n        /* \"#utility.yul\":4245:4246   */\n      0x00\n        /* \"#utility.yul\":4237:4243   */\n      dup3\n        /* \"#utility.yul\":4233:4247   */\n      add\n        /* \"#utility.yul\":4226:4284   */\n      mstore\n        /* \"#utility.yul\":4109:4291   */\n      pop\n      jump\t// out\n        /* \"#utility.yul\":4297:4663   */\n    tag_158:\n        /* \"#utility.yul\":4439:4442   */\n      0x00\n        /* \"#utility.yul\":4460:4527   */\n      tag_228\n        /* \"#utility.yul\":4524:4526   */\n      0x20\n        /* \"#utility.yul\":4519:4522   */\n      dup4\n        /* \"#utility.yul\":4460:4527   */\n      tag_156\n      jump\t// in\n    tag_228:\n        /* \"#utility.yul\":4453:4527   */\n      swap2\n      pop\n        /* \"#utility.yul\":4536:4629   */\n      tag_229\n        /* \"#utility.yul\":4625:4628   */\n      dup3\n        /* \"#utility.yul\":4536:4629   */\n      tag_157\n      jump\t// in\n    tag_229:\n        /* \"#utility.yul\":4654:4656   */\n      0x20\n        /* \"#utility.yul\":4649:4652   */\n      dup3\n        /* \"#utility.yul\":4645:4657   */\n      add\n        /* \"#utility.yul\":4638:4657   */\n      swap1\n      pop\n        /* \"#utility.yul\":4297:4663   */\n      swap2\n      swap1\n      pop\n      jump\t// out\n        /* \"#utility.yul\":4669:5088   */\n    tag_79:\n        /* \"#utility.yul\":4835:4839   */\n      0x00\n        /* \"#utility.yul\":4873:4875   */\n      0x20\n        /* \"#utility.yul\":4862:4871   */\n      dup3\n        /* \"#utility.yul\":4858:4876   */\n      add\n        /* \"#utility.yul\":4850:4876   */\n      swap1\n      pop\n        /* \"#utility.yul\":4922:4931   */\n      dup2\n        /* \"#utility.yul\":4916:4920   */\n      dup2\n        /* \"#utility.yul\":4912:4932   */\n      sub\n        /* \"#utility.yul\":4908:4909   */\n      0x00\n        /* \"#utility.yul\":4897:4906   */\n      dup4\n        /* \"#utility.yul\":4893:4910   */\n      add\n        /* \"#utility.yul\":4886:4933   */\n      mstore\n        /* \"#utility.yul\":4950:5081   */\n      tag_231\n        /* \"#utility.yul\":5076:5080   */\n      dup2\n        /* \"#utility.yul\":4950:5081   */\n      tag_158\n      jump\t// in\n    tag_231:\n        /* \"#utility.yul\":4942:5081   */\n      swap1\n      pop\n        /* \"#utility.yul\":4669:5088   */\n      swap2\n      swap1\n      pop\n      jump\t// out\n        /* \"#utility.yul\":5094:5212   */\n    tag_159:\n        /* \"#utility.yul\":5181:5205   */\n      tag_233\n        /* \"#utility.yul\":5199:5204   */\n      dup2\n        /* \"#utility.yul\":5181:5205   */\n      tag_143\n      jump\t// in\n    tag_233:\n        /* \"#utility.yul\":5176:5179   */\n      dup3\n        /* \"#utility.yul\":5169:5206   */\n      mstore\n        /* \"#utility.yul\":5094:5212   */\n      pop\n      pop\n      jump\t// out\n        /* \"#utility.yul\":5218:5550   */\n    tag_83:\n        /* \"#utility.yul\":5339:5343   */\n      0x00\n        /* \"#utility.yul\":5377:5379   */\n      0x40\n        /* \"#utility.yul\":5366:5375   */\n      dup3\n        /* \"#utility.yul\":5362:5380   */\n      add\n        /* \"#utility.yul\":5354:5380   */\n      swap1\n      pop\n        /* \"#utility.yul\":5390:5461   */\n      tag_235\n        /* \"#utility.yul\":5458:5459   */\n      0x00\n        /* \"#utility.yul\":5447:5456   */\n      dup4\n        /* \"#utility.yul\":5443:5460   */\n      add\n        /* \"#utility.yul\":5434:5440   */\n      dup6\n        /* \"#utility.yul\":5390:5461   */\n      tag_159\n      jump\t// in\n    tag_235:\n        /* \"#utility.yul\":5471:5543   */\n      tag_236\n        /* \"#utility.yul\":5539:5541   */\n      0x20\n        /* \"#utility.yul\":5528:5537   */\n      dup4\n        /* \"#utility.yul\":5524:5542   */\n      add\n        /* \"#utility.yul\":5515:5521   */\n      dup5\n        /* \"#utility.yul\":5471:5543   */\n      tag_147\n      jump\t// in\n    tag_236:\n        /* \"#utility.yul\":5218:5550   */\n      swap4\n      swap3\n      pop\n      pop\n      pop\n      jump\t// out\n        /* \"#utility.yul\":5556:5646   */\n    tag_160:\n        /* \"#utility.yul\":5590:5597   */\n      0x00\n        /* \"#utility.yul\":5633:5638   */\n      dup2\n        /* \"#utility.yul\":5626:5639   */\n      iszero\n        /* \"#utility.yul\":5619:5640   */\n      iszero\n        /* \"#utility.yul\":5608:5640   */\n      swap1\n      pop\n        /* \"#utility.yul\":5556:5646   */\n      swap2\n      swap1\n      pop\n      jump\t// out\n        /* \"#utility.yul\":5652:5768   */\n    tag_161:\n        /* \"#utility.yul\":5722:5743   */\n      tag_239\n        /* \"#utility.yul\":5737:5742   */\n      dup2\n        /* \"#utility.yul\":5722:5743   */\n      tag_160\n      jump\t// in\n    tag_239:\n        /* \"#utility.yul\":5715:5720   */\n      dup2\n        /* \"#utility.yul\":5712:5744   */\n      eq\n        /* \"#utility.yul\":5702:5762   */\n      tag_240\n      jumpi\n        /* \"#utility.yul\":5758:5759   */\n      0x00\n        /* \"#utility.yul\":5755:5756   */\n      dup1\n        /* \"#utility.yul\":5748:5760   */\n      revert\n        /* \"#utility.yul\":5702:5762   */\n    tag_240:\n        /* \"#utility.yul\":5652:5768   */\n      pop\n      jump\t// out\n        /* \"#utility.yul\":5774:5911   */\n    tag_162:\n        /* \"#utility.yul\":5828:5833   */\n      0x00\n        /* \"#utility.yul\":5859:5865   */\n      dup2\n        /* \"#utility.yul\":5853:5866   */\n      mload\n        /* \"#utility.yul\":5844:5866   */\n      swap1\n      pop\n        /* \"#utility.yul\":5875:5905   */\n      tag_242\n        /* \"#utility.yul\":5899:5904   */\n      dup2\n        /* \"#utility.yul\":5875:5905   */\n      tag_161\n      jump\t// in\n    tag_242:\n        /* \"#utility.yul\":5774:5911   */\n      swap3\n      swap2\n      pop\n      pop\n      jump\t// out\n        /* \"#utility.yul\":5917:6262   */\n    tag_87:\n        /* \"#utility.yul\":5984:5990   */\n      0x00\n        /* \"#utility.yul\":6033:6035   */\n      0x20\n        /* \"#utility.yul\":6021:6030   */\n      dup3\n        /* \"#utility.yul\":6012:6019   */\n      dup5\n        /* \"#utility.yul\":6008:6031   */\n      sub\n        /* \"#utility.yul\":6004:6036   */\n      slt\n        /* \"#utility.yul\":6001:6120   */\n      iszero\n      tag_244\n      jumpi\n        /* \"#utility.yul\":6039:6118   */\n      tag_245\n      tag_140\n      jump\t// in\n    tag_245:\n        /* \"#utility.yul\":6001:6120   */\n    tag_244:\n        /* \"#utility.yul\":6159:6160   */\n      0x00\n        /* \"#utility.yul\":6184:6245   */\n      tag_246\n        /* \"#utility.yul\":6237:6244   */\n      dup5\n        /* \"#utility.yul\":6228:6234   */\n      dup3\n        /* \"#utility.yul\":6217:6226   */\n      dup6\n        /* \"#utility.yul\":6213:6235   */\n      add\n        /* \"#utility.yul\":6184:6245   */\n      tag_162\n      jump\t// in\n    tag_246:\n        /* \"#utility.yul\":6174:6245   */\n      swap2\n      pop\n        /* \"#utility.yul\":6130:6255   */\n      pop\n        /* \"#utility.yul\":5917:6262   */\n      swap3\n      swap2\n      pop\n      pop\n      jump\t// out\n        /* \"#utility.yul\":6268:6433   */\n    tag_163:\n        /* \"#utility.yul\":6408:6425   */\n      0x5472616e73666572206661696c65640000000000000000000000000000000000\n        /* \"#utility.yul\":6404:6405   */\n      0x00\n        /* \"#utility.yul\":6396:6402   */\n      dup3\n        /* \"#utility.yul\":6392:6406   */\n      add\n        /* \"#utility.yul\":6385:6426   */\n      mstore\n        /* \"#utility.yul\":6268:6433   */\n      pop\n      jump\t// out\n        /* \"#utility.yul\":6439:6805   */\n    tag_164:\n        /* \"#utility.yul\":6581:6584   */\n      0x00\n        /* \"#utility.yul\":6602:6669   */\n      tag_249\n        /* \"#utility.yul\":6666:6668   */\n      0x0f\n        /* \"#utility.yul\":6661:6664   */\n      dup4\n        /* \"#utility.yul\":6602:6669   */\n      tag_156\n      jump\t// in\n    tag_249:\n        /* \"#utility.yul\":6595:6669   */\n      swap2\n      pop\n        /* \"#utility.yul\":6678:6771   */\n      tag_250\n        /* \"#utility.yul\":6767:6770   */\n      dup3\n        /* \"#utility.yul\":6678:6771   */\n      tag_163\n      jump\t// in\n    tag_250:\n        /* \"#utility.yul\":6796:6798   */\n      0x20\n        /* \"#utility.yul\":6791:6794   */\n      dup3\n        /* \"#utility.yul\":6787:6799   */\n      add\n        /* \"#utility.yul\":6780:6799   */\n      swap1\n      pop\n        /* \"#utility.yul\":6439:6805   */\n      swap2\n      swap1\n      pop\n      jump\t// out\n        /* \"#utility.yul\":6811:7230   */\n    tag_90:\n        /* \"#utility.yul\":6977:6981   */\n      0x00\n        /* \"#utility.yul\":7015:7017   */\n      0x20\n        /* \"#utility.yul\":7004:7013   */\n      dup3\n        /* \"#utility.yul\":7000:7018   */\n      add\n        /* \"#utility.yul\":6992:7018   */\n      swap1\n      pop\n        /* \"#utility.yul\":7064:7073   */\n      dup2\n        /* \"#utility.yul\":7058:7062   */\n      dup2\n        /* \"#utility.yul\":7054:7074   */\n      sub\n        /* \"#utility.yul\":7050:7051   */\n      0x00\n        /* \"#utility.yul\":7039:7048   */\n      dup4\n        /* \"#utility.yul\":7035:7052   */\n      add\n        /* \"#utility.yul\":7028:7075   */\n      mstore\n        /* \"#utility.yul\":7092:7223   */\n      tag_252\n        /* \"#utility.yul\":7218:7222   */\n      dup2\n        /* \"#utility.yul\":7092:7223   */\n      tag_164\n      jump\t// in\n    tag_252:\n        /* \"#utility.yul\":7084:7223   */\n      swap1\n      pop\n        /* \"#utility.yul\":6811:7230   */\n      swap2\n      swap1\n      pop\n      jump\t// out\n        /* \"#utility.yul\":7236:7404   */\n    tag_165:\n        /* \"#utility.yul\":7376:7396   */\n      0x4e6f7265776172647320746f20636c61696d0000000000000000000000000000\n        /* \"#utility.yul\":7372:7373   */\n      0x00\n        /* \"#utility.yul\":7364:7370   */\n      dup3\n        /* \"#utility.yul\":7360:7374   */\n      add\n        /* \"#utility.yul\":7353:7397   */\n      mstore\n        /* \"#utility.yul\":7236:7404   */\n      pop\n      jump\t// out\n        /* \"#utility.yul\":7410:7776   */\n    tag_166:\n        /* \"#utility.yul\":7552:7555   */\n      0x00\n        /* \"#utility.yul\":7573:7640   */\n      tag_255\n        /* \"#utility.yul\":7637:7639   */\n      0x12\n        /* \"#utility.yul\":7632:7635   */\n      dup4\n        /* \"#utility.yul\":7573:7640   */\n      tag_156\n      jump\t// in\n    tag_255:\n        /* \"#utility.yul\":7566:7640   */\n      swap2\n      pop\n        /* \"#utility.yul\":7649:7742   */\n      tag_256\n        /* \"#utility.yul\":7738:7741   */\n      dup3\n        /* \"#utility.yul\":7649:7742   */\n      tag_165\n      jump\t// in\n    tag_256:\n        /* \"#utility.yul\":7767:7769   */\n      0x20\n        /* \"#utility.yul\":7762:7765   */\n      dup3\n        /* \"#utility.yul\":7758:7770   */\n      add\n        /* \"#utility.yul\":7751:7770   */\n      swap1\n      pop\n        /* \"#utility.yul\":7410:7776   */\n      swap2\n      swap1\n      pop\n      jump\t// out\n        /* \"#utility.yul\":7782:8201   */\n    tag_101:\n        /* \"#utility.yul\":7948:7952   */\n      0x00\n        /* \"#utility.yul\":7986:7988   */\n      0x20\n        /* \"#utility.yul\":7975:7984   */\n      dup3\n        /* \"#utility.yul\":7971:7989   */\n      add\n        /* \"#utility.yul\":7963:7989   */\n      swap1\n      pop\n        /* \"#utility.yul\":8035:8044   */\n      dup2\n        /* \"#utility.yul\":8029:8033   */\n      dup2\n        /* \"#utility.yul\":8025:8045   */\n      sub\n        /* \"#utility.yul\":8021:8022   */\n      0x00\n        /* \"#utility.yul\":8010:8019   */\n      dup4\n        /* \"#utility.yul\":8006:8023   */\n      add\n        /* \"#utility.yul\":7999:8046   */\n      mstore\n        /* \"#utility.yul\":8063:8194   */\n      tag_258\n        /* \"#utility.yul\":8189:8193   */\n      dup2\n        /* \"#utility.yul\":8063:8194   */\n      tag_166\n      jump\t// in\n    tag_258:\n        /* \"#utility.yul\":8055:8194   */\n      swap1\n      pop\n        /* \"#utility.yul\":7782:8201   */\n      swap2\n      swap1\n      pop\n      jump\t// out\n        /* \"#utility.yul\":8207:8398   */\n    tag_118:\n        /* \"#utility.yul\":8247:8250   */\n      0x00\n        /* \"#utility.yul\":8266:8286   */\n      tag_260\n        /* \"#utility.yul\":8284:8285   */\n      dup3\n        /* \"#utility.yul\":8266:8286   */\n      tag_146\n      jump\t// in\n    tag_260:\n        /* \"#utility.yul\":8261:8286   */\n      swap2\n      pop\n        /* \"#utility.yul\":8300:8320   */\n      tag_261\n        /* \"#utility.yul\":8318:8319   */\n      dup4\n        /* \"#utility.yul\":8300:8320   */\n      tag_146\n      jump\t// in\n    tag_261:\n        /* \"#utility.yul\":8295:8320   */\n      swap3\n      pop\n        /* \"#utility.yul\":8343:8344   */\n      dup3\n        /* \"#utility.yul\":8340:8341   */\n      dup3\n        /* \"#utility.yul\":8336:8345   */\n      add\n        /* \"#utility.yul\":8329:8345   */\n      swap1\n      pop\n        /* \"#utility.yul\":8364:8367   */\n      dup1\n        /* \"#utility.yul\":8361:8362   */\n      dup3\n        /* \"#utility.yul\":8358:8368   */\n      gt\n        /* \"#utility.yul\":8355:8391   */\n      iszero\n      tag_262\n      jumpi\n        /* \"#utility.yul\":8371:8389   */\n      tag_263\n      tag_155\n      jump\t// in\n    tag_263:\n        /* \"#utility.yul\":8355:8391   */\n    tag_262:\n        /* \"#utility.yul\":8207:8398   */\n      swap3\n      swap2\n      pop\n      pop\n      jump\t// out\n        /* \"#utility.yul\":8404:8846   */\n    tag_121:\n        /* \"#utility.yul\":8553:8557   */\n      0x00\n        /* \"#utility.yul\":8591:8593   */\n      0x60\n        /* \"#utility.yul\":8580:8589   */\n      dup3\n        /* \"#utility.yul\":8576:8594   */\n      add\n        /* \"#utility.yul\":8568:8594   */\n      swap1\n      pop\n        /* \"#utility.yul\":8604:8675   */\n      tag_265\n        /* \"#utility.yul\":8672:8673   */\n      0x00\n        /* \"#utility.yul\":8661:8670   */\n      dup4\n        /* \"#utility.yul\":8657:8674   */\n      add\n        /* \"#utility.yul\":8648:8654   */\n      dup7\n        /* \"#utility.yul\":8604:8675   */\n      tag_159\n      jump\t// in\n    tag_265:\n        /* \"#utility.yul\":8685:8757   */\n      tag_266\n        /* \"#utility.yul\":8753:8755   */\n      0x20\n        /* \"#utility.yul\":8742:8751   */\n      dup4\n        /* \"#utility.yul\":8738:8756   */\n      add\n        /* \"#utility.yul\":8729:8735   */\n      dup6\n        /* \"#utility.yul\":8685:8757   */\n      tag_159\n      jump\t// in\n    tag_266:\n        /* \"#utility.yul\":8767:8839   */\n      tag_267\n        /* \"#utility.yul\":8835:8837   */\n      0x40\n        /* \"#utility.yul\":8824:8833   */\n      dup4\n        /* \"#utility.yul\":8820:8838   */\n      add\n        /* \"#utility.yul\":8811:8817   */\n      dup5\n        /* \"#utility.yul\":8767:8839   */\n      tag_147\n      jump\t// in\n    tag_267:\n        /* \"#utility.yul\":8404:8846   */\n      swap5\n      swap4\n      pop\n      pop\n      pop\n      pop\n      jump\t// out\n        /* \"#utility.yul\":8852:9032   */\n    tag_167:\n        /* \"#utility.yul\":8900:8977   */\n      0x4e487b7100000000000000000000000000000000000000000000000000000000\n        /* \"#utility.yul\":8897:8898   */\n      0x00\n        /* \"#utility.yul\":8890:8978   */\n      mstore\n        /* \"#utility.yul\":8997:9001   */\n      0x12\n        /* \"#utility.yul\":8994:8995   */\n      0x04\n        /* \"#utility.yul\":8987:9002   */\n      mstore\n        /* \"#utility.yul\":9021:9025   */\n      0x24\n        /* \"#utility.yul\":9018:9019   */\n      0x00\n        /* \"#utility.yul\":9011:9026   */\n      revert\n        /* \"#utility.yul\":9038:9223   */\n    tag_133:\n        /* \"#utility.yul\":9078:9079   */\n      0x00\n        /* \"#utility.yul\":9095:9115   */\n      tag_270\n        /* \"#utility.yul\":9113:9114   */\n      dup3\n        /* \"#utility.yul\":9095:9115   */\n      tag_146\n      jump\t// in\n    tag_270:\n        /* \"#utility.yul\":9090:9115   */\n      swap2\n      pop\n        /* \"#utility.yul\":9129:9149   */\n      tag_271\n        /* \"#utility.yul\":9147:9148   */\n      dup4\n        /* \"#utility.yul\":9129:9149   */\n      tag_146\n      jump\t// in\n    tag_271:\n        /* \"#utility.yul\":9124:9149   */\n      swap3\n      pop\n        /* \"#utility.yul\":9168:9169   */\n      dup3\n        /* \"#utility.yul\":9158:9193   */\n      tag_272\n      jumpi\n        /* \"#utility.yul\":9173:9191   */\n      tag_273\n      tag_167\n      jump\t// in\n    tag_273:\n        /* \"#utility.yul\":9158:9193   */\n    tag_272:\n        /* \"#utility.yul\":9215:9216   */\n      dup3\n        /* \"#utility.yul\":9212:9213   */\n      dup3\n        /* \"#utility.yul\":9208:9217   */\n      div\n        /* \"#utility.yul\":9203:9217   */\n      swap1\n      pop\n        /* \"#utility.yul\":9038:9223   */\n      swap3\n      swap2\n      pop\n      pop\n      jump\t// out\n        /* \"#utility.yul\":9229:9410   */\n    tag_168:\n        /* \"#utility.yul\":9369:9402   */\n      0x5265656e7472616e637947756172643a207265656e7472616e742063616c6c00\n        /* \"#utility.yul\":9365:9366   */\n      0x00\n        /* \"#utility.yul\":9357:9363   */\n      dup3\n        /* \"#utility.yul\":9353:9367   */\n      add\n        /* \"#utility.yul\":9346:9403   */\n      mstore\n        /* \"#utility.yul\":9229:9410   */\n      pop\n      jump\t// out\n        /* \"#utility.yul\":9416:9782   */\n    tag_169:\n        /* \"#utility.yul\":9558:9561   */\n      0x00\n        /* \"#utility.yul\":9579:9646   */\n      tag_276\n        /* \"#utility.yul\":9643:9645   */\n      0x1f\n        /* \"#utility.yul\":9638:9641   */\n      dup4\n        /* \"#utility.yul\":9579:9646   */\n      tag_156\n      jump\t// in\n    tag_276:\n        /* \"#utility.yul\":9572:9646   */\n      swap2\n      pop\n        /* \"#utility.yul\":9655:9748   */\n      tag_277\n        /* \"#utility.yul\":9744:9747   */\n      dup3\n        /* \"#utility.yul\":9655:9748   */\n      tag_168\n      jump\t// in\n    tag_277:\n        /* \"#utility.yul\":9773:9775   */\n      0x20\n        /* \"#utility.yul\":9768:9771   */\n      dup3\n        /* \"#utility.yul\":9764:9776   */\n      add\n        /* \"#utility.yul\":9757:9776   */\n      swap1\n      pop\n        /* \"#utility.yul\":9416:9782   */\n      swap2\n      swap1\n      pop\n      jump\t// out\n        /* \"#utility.yul\":9788:10207   */\n    tag_137:\n        /* \"#utility.yul\":9954:9958   */\n      0x00\n        /* \"#utility.yul\":9992:9994   */\n      0x20\n        /* \"#utility.yul\":9981:9990   */\n      dup3\n        /* \"#utility.yul\":9977:9995   */\n      add\n        /* \"#utility.yul\":9969:9995   */\n      swap1\n      pop\n        /* \"#utility.yul\":10041:10050   */\n      dup2\n        /* \"#utility.yul\":10035:10039   */\n      dup2\n        /* \"#utility.yul\":10031:10051   */\n      sub\n        /* \"#utility.yul\":10027:10028   */\n      0x00\n        /* \"#utility.yul\":10016:10025   */\n      dup4\n        /* \"#utility.yul\":10012:10029   */\n      add\n        /* \"#utility.yul\":10005:10052   */\n      mstore\n        /* \"#utility.yul\":10069:10200   */\n      tag_279\n        /* \"#utility.yul\":10195:10199   */\n      dup2\n        /* \"#utility.yul\":10069:10200   */\n      tag_169\n      jump\t// in\n    tag_279:\n        /* \"#utility.yul\":10061:10200   */\n      swap1\n      pop\n        /* \"#utility.yul\":9788:10207   */\n      swap2\n      swap1\n      pop\n      jump\t// out\n\n    auxdata: 0xa264697066735822122051f66ea740ba3ca97b9c4dd6fc5936580f1337de5be409a033f57d9d39a20e0464736f6c63430008160033\n}\n",
				"bytecode": {
					"linkReferences": {},
					"object": "608060405234801562000010575f80fd5b50604051620012f8380380620012f883398181016040528101906200003691906200012a565b60015f819055508160015f6101000a81548173ffffffffffffffffffffffffffffffffffffffff021916908373ffffffffffffffffffffffffffffffffffffffff1602179055508060025f6101000a81548173ffffffffffffffffffffffffffffffffffffffff021916908373ffffffffffffffffffffffffffffffffffffffff16021790555050506200016f565b5f80fd5b5f73ffffffffffffffffffffffffffffffffffffffff82169050919050565b5f620000f482620000c9565b9050919050565b6200010681620000e8565b811462000111575f80fd5b50565b5f815190506200012481620000fb565b92915050565b5f8060408385031215620001435762000142620000c5565b5b5f620001528582860162000114565b9250506020620001658582860162000114565b9150509250929050565b61117b806200017d5f395ff3fe608060405234801561000f575f80fd5b50600436106100cc575f3560e01c80636374cc001161008a578063adca9b7211610064578063adca9b721461020e578063bf8568951461022c578063cd3daf9d1461024a578063df136d6514610268576100cc565b80636374cc00146101a45780638b876347146101c2578063a694fc3a146101f2576100cc565b80628cc262146100d05780630700037d146101005780632e1a7d4d146101305780633d18b9121461014c5780635997bb37146101565780636021726714610174575b5f80fd5b6100ea60048036038101906100e59190610c74565b610286565b6040516100f79190610cb7565b60405180910390f35b61011a60048036038101906101159190610c74565b610326565b6040516101279190610cb7565b60405180910390f35b61014a60048036038101906101459190610cfa565b61033b565b005b6101546105c4565b005b61015e610865565b60405161016b9190610cb7565b60405180910390f35b61018e60048036038101906101899190610c74565b61086a565b60405161019b9190610cb7565b60405180910390f35b6101ac61087f565b6040516101b99190610d80565b60405180910390f35b6101dc60048036038101906101d79190610c74565b6108a4565b6040516101e99190610cb7565b60405180910390f35b61020c60048036038101906102079190610cfa565b6108b9565b005b610216610b44565b6040516102239190610d80565b60405180910390f35b610234610b69565b6040516102419190610cb7565b60405180910390f35b610252610b6f565b60405161025f9190610cb7565b60405180910390f35b610270610bba565b60405161027d9190610cb7565b60405180910390f35b5f60085f8373ffffffffffffffffffffffffffffffffffffffff1673ffffffffffffffffffffffffffffffffffffffff1681526020019081526020015f20546102cd610b6f565b6102d79190610dc6565b60065f8473ffffffffffffffffffffffffffffffffffffffff1673ffffffffffffffffffffffffffffffffffffffff1681526020019081526020015f205461031f9190610df9565b9050919050565b6007602052805f5260405f205f915090505481565b610343610bc0565b3361034c610b6f565b6004819055504260058190555061036281610286565b60075f8373ffffffffffffffffffffffffffffffffffffffff1673ffffffffffffffffffffffffffffffffffffffff1681526020019081526020015f208190555060045460085f8373ffffffffffffffffffffffffffffffffffffffff1673ffffffffffffffffffffffffffffffffffffffff1681526020019081526020015f20819055505f8211610429576040517f08c379a000000000000000000000000000000000000000000000000000000000815260040161042090610e94565b60405180910390fd5b8160035f82825461043a9190610dc6565b925050819055508160065f3373ffffffffffffffffffffffffffffffffffffffff1673ffffffffffffffffffffffffffffffffffffffff1681526020019081526020015f205f82825461048d9190610dc6565b92505081905550813373ffffffffffffffffffffffffffffffffffffffff167f9e71bc8eea02a63969f509818f2dafb9254532904319f9dbda79b67bd34a5f3d60405160405180910390a35f60015f9054906101000a900473ffffffffffffffffffffffffffffffffffffffff1673ffffffffffffffffffffffffffffffffffffffff1663a9059cbb33856040518363ffffffff1660e01b8152600401610535929190610ec1565b6020604051808303815f875af1158015610551573d5f803e3d5ffd5b505050506040513d601f19601f820116820180604052508101906105759190610f1d565b9050806105b7576040517f08c379a00000000000000000000000000000000000000000000000000000000081526004016105ae90610f92565b60405180910390fd5b50506105c1610c0d565b50565b6105cc610bc0565b336105d5610b6f565b600481905550426005819055506105eb81610286565b60075f8373ffffffffffffffffffffffffffffffffffffffff1673ffffffffffffffffffffffffffffffffffffffff1681526020019081526020015f208190555060045460085f8373ffffffffffffffffffffffffffffffffffffffff1673ffffffffffffffffffffffffffffffffffffffff1681526020019081526020015f20819055505f60075f3373ffffffffffffffffffffffffffffffffffffffff1673ffffffffffffffffffffffffffffffffffffffff1681526020019081526020015f205490505f81116106f3576040517f08c379a00000000000000000000000000000000000000000000000000000000081526004016106ea90610ffa565b60405180910390fd5b5f60075f3373ffffffffffffffffffffffffffffffffffffffff1673ffffffffffffffffffffffffffffffffffffffff1681526020019081526020015f2081905550803373ffffffffffffffffffffffffffffffffffffffff167ffc30cddea38e2bf4d6ea7d3f9ed3b6ad7f176419f4963bd81318067a4aee73fe60405160405180910390a35f60015f9054906101000a900473ffffffffffffffffffffffffffffffffffffffff1673ffffffffffffffffffffffffffffffffffffffff1663a9059cbb33846040518363ffffffff1660e01b81526004016107d6929190610ec1565b6020604051808303815f875af11580156107f2573d5f803e3d5ffd5b505050506040513d601f19601f820116820180604052508101906108169190610f1d565b905080610858576040517f08c379a000000000000000000000000000000000000000000000000000000000815260040161084f90610f92565b60405180910390fd5b505050610863610c0d565b565b600a81565b6006602052805f5260405f205f915090505481565b60025f9054906101000a900473ffffffffffffffffffffffffffffffffffffffff1681565b6008602052805f5260405f205f915090505481565b6108c1610bc0565b336108ca610b6f565b600481905550426005819055506108e081610286565b60075f8373ffffffffffffffffffffffffffffffffffffffff1673ffffffffffffffffffffffffffffffffffffffff1681526020019081526020015f208190555060045460085f8373ffffffffffffffffffffffffffffffffffffffff1673ffffffffffffffffffffffffffffffffffffffff1681526020019081526020015f20819055505f82116109a7576040517f08c379a000000000000000000000000000000000000000000000000000000000815260040161099e90610e94565b60405180910390fd5b8160035f8282546109b89190611018565b925050819055508160065f3373ffffffffffffffffffffffffffffffffffffffff1673ffffffffffffffffffffffffffffffffffffffff1681526020019081526020015f205f828254610a0b9190611018565b92505081905550813373ffffffffffffffffffffffffffffffffffffffff167f9e71bc8eea02a63969f509818f2dafb9254532904319f9dbda79b67bd34a5f3d60405160405180910390a35f60015f9054906101000a900473ffffffffffffffffffffffffffffffffffffffff1673ffffffffffffffffffffffffffffffffffffffff166323b872dd3330866040518463ffffffff1660e01b8152600401610ab59392919061104b565b6020604051808303815f875af1158015610ad1573d5f803e3d5ffd5b505050506040513d601f19601f82011682018060405250810190610af59190610f1d565b905080610b37576040517f08c379a0000000000000000000000000000000000000000000000000000000008152600401610b2e90610f92565b60405180910390fd5b5050610b41610c0d565b50565b60015f9054906101000a900473ffffffffffffffffffffffffffffffffffffffff1681565b60055481565b5f8060035403610b83576004549050610bb7565b5f60055442610b929190610dc6565b90505f81600a610ba29190610df9565b905060035481610bb291906110ad565b925050505b90565b60045481565b60025f5403610c04576040517f08c379a0000000000000000000000000000000000000000000000000000000008152600401610bfb90611127565b60405180910390fd5b60025f81905550565b60015f81905550565b5f80fd5b5f73ffffffffffffffffffffffffffffffffffffffff82169050919050565b5f610c4382610c1a565b9050919050565b610c5381610c39565b8114610c5d575f80fd5b50565b5f81359050610c6e81610c4a565b92915050565b5f60208284031215610c8957610c88610c16565b5b5f610c9684828501610c60565b91505092915050565b5f819050919050565b610cb181610c9f565b82525050565b5f602082019050610cca5f830184610ca8565b92915050565b610cd981610c9f565b8114610ce3575f80fd5b50565b5f81359050610cf481610cd0565b92915050565b5f60208284031215610d0f57610d0e610c16565b5b5f610d1c84828501610ce6565b91505092915050565b5f819050919050565b5f610d48610d43610d3e84610c1a565b610d25565b610c1a565b9050919050565b5f610d5982610d2e565b9050919050565b5f610d6a82610d4f565b9050919050565b610d7a81610d60565b82525050565b5f602082019050610d935f830184610d71565b92915050565b7f4e487b71000000000000000000000000000000000000000000000000000000005f52601160045260245ffd5b5f610dd082610c9f565b9150610ddb83610c9f565b9250828203905081811115610df357610df2610d99565b5b92915050565b5f610e0382610c9f565b9150610e0e83610c9f565b9250828202610e1c81610c9f565b91508282048414831517610e3357610e32610d99565b5b5092915050565b5f82825260208201905092915050565b7f416d6f756e74206d7573742062652067726561746572207468616e207a65726f5f82015250565b5f610e7e602083610e3a565b9150610e8982610e4a565b602082019050919050565b5f6020820190508181035f830152610eab81610e72565b9050919050565b610ebb81610c39565b82525050565b5f604082019050610ed45f830185610eb2565b610ee16020830184610ca8565b9392505050565b5f8115159050919050565b610efc81610ee8565b8114610f06575f80fd5b50565b5f81519050610f1781610ef3565b92915050565b5f60208284031215610f3257610f31610c16565b5b5f610f3f84828501610f09565b91505092915050565b7f5472616e73666572206661696c656400000000000000000000000000000000005f82015250565b5f610f7c600f83610e3a565b9150610f8782610f48565b602082019050919050565b5f6020820190508181035f830152610fa981610f70565b9050919050565b7f4e6f7265776172647320746f20636c61696d00000000000000000000000000005f82015250565b5f610fe4601283610e3a565b9150610fef82610fb0565b602082019050919050565b5f6020820190508181035f83015261101181610fd8565b9050919050565b5f61102282610c9f565b915061102d83610c9f565b925082820190508082111561104557611044610d99565b5b92915050565b5f60608201905061105e5f830186610eb2565b61106b6020830185610eb2565b6110786040830184610ca8565b949350505050565b7f4e487b71000000000000000000000000000000000000000000000000000000005f52601260045260245ffd5b5f6110b782610c9f565b91506110c283610c9f565b9250826110d2576110d1611080565b5b828204905092915050565b7f5265656e7472616e637947756172643a207265656e7472616e742063616c6c005f82015250565b5f611111601f83610e3a565b915061111c826110dd565b602082019050919050565b5f6020820190508181035f83015261113e81611105565b905091905056fea264697066735822122051f66ea740ba3ca97b9c4dd6fc5936580f1337de5be409a033f57d9d39a20e0464736f6c63430008160033",
					"opcodes": "PUSH1 0x80 PUSH1 0x40 MSTORE CALLVALUE DUP1 ISZERO PUSH3 0x10 JUMPI PUSH0 DUP1 REVERT JUMPDEST POP PUSH1 0x40 MLOAD PUSH3 0x12F8 CODESIZE SUB DUP1 PUSH3 0x12F8 DUP4 CODECOPY DUP2 DUP2 ADD PUSH1 0x40 MSTORE DUP2 ADD SWAP1 PUSH3 0x36 SWAP2 SWAP1 PUSH3 0x12A JUMP JUMPDEST PUSH1 0x1 PUSH0 DUP2 SWAP1 SSTORE POP DUP2 PUSH1 0x1 PUSH0 PUSH2 0x100 EXP DUP2 SLOAD DUP2 PUSH20 0xFFFFFFFFFFFFFFFFFFFFFFFFFFFFFFFFFFFFFFFF MUL NOT AND SWAP1 DUP4 PUSH20 0xFFFFFFFFFFFFFFFFFFFFFFFFFFFFFFFFFFFFFFFF AND MUL OR SWAP1 SSTORE POP DUP1 PUSH1 0x2 PUSH0 PUSH2 0x100 EXP DUP2 SLOAD DUP2 PUSH20 0xFFFFFFFFFFFFFFFFFFFFFFFFFFFFFFFFFFFFFFFF MUL NOT AND SWAP1 DUP4 PUSH20 0xFFFFFFFFFFFFFFFFFFFFFFFFFFFFFFFFFFFFFFFF AND MUL OR SWAP1 SSTORE POP POP POP PUSH3 0x16F JUMP JUMPDEST PUSH0 DUP1 REVERT JUMPDEST PUSH0 PUSH20 0xFFFFFFFFFFFFFFFFFFFFFFFFFFFFFFFFFFFFFFFF DUP3 AND SWAP1 POP SWAP2 SWAP1 POP JUMP JUMPDEST PUSH0 PUSH3 0xF4 DUP3 PUSH3 0xC9 JUMP JUMPDEST SWAP1 POP SWAP2 SWAP1 POP JUMP JUMPDEST PUSH3 0x106 DUP2 PUSH3 0xE8 JUMP JUMPDEST DUP2 EQ PUSH3 0x111 JUMPI PUSH0 DUP1 REVERT JUMPDEST POP JUMP JUMPDEST PUSH0 DUP2 MLOAD SWAP1 POP PUSH3 0x124 DUP2 PUSH3 0xFB JUMP JUMPDEST SWAP3 SWAP2 POP POP JUMP JUMPDEST PUSH0 DUP1 PUSH1 0x40 DUP4 DUP6 SUB SLT ISZERO PUSH3 0x143 JUMPI PUSH3 0x142 PUSH3 0xC5 JUMP JUMPDEST JUMPDEST PUSH0 PUSH3 0x152 DUP6 DUP3 DUP7 ADD PUSH3 0x114 JUMP JUMPDEST SWAP3 POP POP PUSH1 0x20 PUSH3 0x165 DUP6 DUP3 DUP7 ADD PUSH3 0x114 JUMP JUMPDEST SWAP2 POP POP SWAP3 POP SWAP3 SWAP1 POP JUMP JUMPDEST PUSH2 0x117B DUP1 PUSH3 0x17D PUSH0 CODECOPY PUSH0 RETURN INVALID PUSH1 0x80 PUSH1 0x40 MSTORE CALLVALUE DUP1 ISZERO PUSH2 0xF JUMPI PUSH0 DUP1 REVERT JUMPDEST POP PUSH1 0x4 CALLDATASIZE LT PUSH2 0xCC JUMPI PUSH0 CALLDATALOAD PUSH1 0xE0 SHR DUP1 PUSH4 0x6374CC00 GT PUSH2 0x8A JUMPI DUP1 PUSH4 0xADCA9B72 GT PUSH2 0x64 JUMPI DUP1 PUSH4 0xADCA9B72 EQ PUSH2 0x20E JUMPI DUP1 PUSH4 0xBF856895 EQ PUSH2 0x22C JUMPI DUP1 PUSH4 0xCD3DAF9D EQ PUSH2 0x24A JUMPI DUP1 PUSH4 0xDF136D65 EQ PUSH2 0x268 JUMPI PUSH2 0xCC JUMP JUMPDEST DUP1 PUSH4 0x6374CC00 EQ PUSH2 0x1A4 JUMPI DUP1 PUSH4 0x8B876347 EQ PUSH2 0x1C2 JUMPI DUP1 PUSH4 0xA694FC3A EQ PUSH2 0x1F2 JUMPI PUSH2 0xCC JUMP JUMPDEST DUP1 PUSH3 0x8CC262 EQ PUSH2 0xD0 JUMPI DUP1 PUSH4 0x700037D EQ PUSH2 0x100 JUMPI DUP1 PUSH4 0x2E1A7D4D EQ PUSH2 0x130 JUMPI DUP1 PUSH4 0x3D18B912 EQ PUSH2 0x14C JUMPI DUP1 PUSH4 0x5997BB37 EQ PUSH2 0x156 JUMPI DUP1 PUSH4 0x60217267 EQ PUSH2 0x174 JUMPI JUMPDEST PUSH0 DUP1 REVERT JUMPDEST PUSH2 0xEA PUSH1 0x4 DUP1 CALLDATASIZE SUB DUP2 ADD SWAP1 PUSH2 0xE5 SWAP2 SWAP1 PUSH2 0xC74 JUMP JUMPDEST PUSH2 0x286 JUMP JUMPDEST PUSH1 0x40 MLOAD PUSH2 0xF7 SWAP2 SWAP1 PUSH2 0xCB7 JUMP JUMPDEST PUSH1 0x40 MLOAD DUP1 SWAP2 SUB SWAP1 RETURN JUMPDEST PUSH2 0x11A PUSH1 0x4 DUP1 CALLDATASIZE SUB DUP2 ADD SWAP1 PUSH2 0x115 SWAP2 SWAP1 PUSH2 0xC74 JUMP JUMPDEST PUSH2 0x326 JUMP JUMPDEST PUSH1 0x40 MLOAD PUSH2 0x127 SWAP2 SWAP1 PUSH2 0xCB7 JUMP JUMPDEST PUSH1 0x40 MLOAD DUP1 SWAP2 SUB SWAP1 RETURN JUMPDEST PUSH2 0x14A PUSH1 0x4 DUP1 CALLDATASIZE SUB DUP2 ADD SWAP1 PUSH2 0x145 SWAP2 SWAP1 PUSH2 0xCFA JUMP JUMPDEST PUSH2 0x33B JUMP JUMPDEST STOP JUMPDEST PUSH2 0x154 PUSH2 0x5C4 JUMP JUMPDEST STOP JUMPDEST PUSH2 0x15E PUSH2 0x865 JUMP JUMPDEST PUSH1 0x40 MLOAD PUSH2 0x16B SWAP2 SWAP1 PUSH2 0xCB7 JUMP JUMPDEST PUSH1 0x40 MLOAD DUP1 SWAP2 SUB SWAP1 RETURN JUMPDEST PUSH2 0x18E PUSH1 0x4 DUP1 CALLDATASIZE SUB DUP2 ADD SWAP1 PUSH2 0x189 SWAP2 SWAP1 PUSH2 0xC74 JUMP JUMPDEST PUSH2 0x86A JUMP JUMPDEST PUSH1 0x40 MLOAD PUSH2 0x19B SWAP2 SWAP1 PUSH2 0xCB7 JUMP JUMPDEST PUSH1 0x40 MLOAD DUP1 SWAP2 SUB SWAP1 RETURN JUMPDEST PUSH2 0x1AC PUSH2 0x87F JUMP JUMPDEST PUSH1 0x40 MLOAD PUSH2 0x1B9 SWAP2 SWAP1 PUSH2 0xD80 JUMP JUMPDEST PUSH1 0x40 MLOAD DUP1 SWAP2 SUB SWAP1 RETURN JUMPDEST PUSH2 0x1DC PUSH1 0x4 DUP1 CALLDATASIZE SUB DUP2 ADD SWAP1 PUSH2 0x1D7 SWAP2 SWAP1 PUSH2 0xC74 JUMP JUMPDEST PUSH2 0x8A4 JUMP JUMPDEST PUSH1 0x40 MLOAD PUSH2 0x1E9 SWAP2 SWAP1 PUSH2 0xCB7 JUMP JUMPDEST PUSH1 0x40 MLOAD DUP1 SWAP2 SUB SWAP1 RETURN JUMPDEST PUSH2 0x20C PUSH1 0x4 DUP1 CALLDATASIZE SUB DUP2 ADD SWAP1 PUSH2 0x207 SWAP2 SWAP1 PUSH2 0xCFA JUMP JUMPDEST PUSH2 0x8B9 JUMP JUMPDEST STOP JUMPDEST PUSH2 0x216 PUSH2 0xB44 JUMP JUMPDEST PUSH1 0x40 MLOAD PUSH2 0x223 SWAP2 SWAP1 PUSH2 0xD80 JUMP JUMPDEST PUSH1 0x40 MLOAD DUP1 SWAP2 SUB SWAP1 RETURN JUMPDEST PUSH2 0x234 PUSH2 0xB69 JUMP JUMPDEST PUSH1 0x40 MLOAD PUSH2 0x241 SWAP2 SWAP1 PUSH2 0xCB7 JUMP JUMPDEST PUSH1 0x40 MLOAD DUP1 SWAP2 SUB SWAP1 RETURN JUMPDEST PUSH2 0x252 PUSH2 0xB6F JUMP JUMPDEST PUSH1 0x40 MLOAD PUSH2 0x25F SWAP2 SWAP1 PUSH2 0xCB7 JUMP JUMPDEST PUSH1 0x40 MLOAD DUP1 SWAP2 SUB SWAP1 RETURN JUMPDEST PUSH2 0x270 PUSH2 0xBBA JUMP JUMPDEST PUSH1 0x40 MLOAD PUSH2 0x27D SWAP2 SWAP1 PUSH2 0xCB7 JUMP JUMPDEST PUSH1 0x40 MLOAD DUP1 SWAP2 SUB SWAP1 RETURN JUMPDEST PUSH0 PUSH1 0x8 PUSH0 DUP4 PUSH20 0xFFFFFFFFFFFFFFFFFFFFFFFFFFFFFFFFFFFFFFFF AND PUSH20 0xFFFFFFFFFFFFFFFFFFFFFFFFFFFFFFFFFFFFFFFF AND DUP2 MSTORE PUSH1 0x20 ADD SWAP1 DUP2 MSTORE PUSH1 0x20 ADD PUSH0 KECCAK256 SLOAD PUSH2 0x2CD PUSH2 0xB6F JUMP JUMPDEST PUSH2 0x2D7 SWAP2 SWAP1 PUSH2 0xDC6 JUMP JUMPDEST PUSH1 0x6 PUSH0 DUP5 PUSH20 0xFFFFFFFFFFFFFFFFFFFFFFFFFFFFFFFFFFFFFFFF AND PUSH20 0xFFFFFFFFFFFFFFFFFFFFFFFFFFFFFFFFFFFFFFFF AND DUP2 MSTORE PUSH1 0x20 ADD SWAP1 DUP2 MSTORE PUSH1 0x20 ADD PUSH0 KECCAK256 SLOAD PUSH2 0x31F SWAP2 SWAP1 PUSH2 0xDF9 JUMP JUMPDEST SWAP1 POP SWAP2 SWAP1 POP JUMP JUMPDEST PUSH1 0x7 PUSH1 0x20 MSTORE DUP1 PUSH0 MSTORE PUSH1 0x40 PUSH0 KECCAK256 PUSH0 SWAP2 POP SWAP1 POP SLOAD DUP2 JUMP JUMPDEST PUSH2 0x343 PUSH2 0xBC0 JUMP JUMPDEST CALLER PUSH2 0x34C PUSH2 0xB6F JUMP JUMPDEST PUSH1 0x4 DUP2 SWAP1 SSTORE POP TIMESTAMP PUSH1 0x5 DUP2 SWAP1 SSTORE POP PUSH2 0x362 DUP2 PUSH2 0x286 JUMP JUMPDEST PUSH1 0x7 PUSH0 DUP4 PUSH20 0xFFFFFFFFFFFFFFFFFFFFFFFFFFFFFFFFFFFFFFFF AND PUSH20 0xFFFFFFFFFFFFFFFFFFFFFFFFFFFFFFFFFFFFFFFF AND DUP2 MSTORE PUSH1 0x20 ADD SWAP1 DUP2 MSTORE PUSH1 0x20 ADD PUSH0 KECCAK256 DUP2 SWAP1 SSTORE POP PUSH1 0x4 SLOAD PUSH1 0x8 PUSH0 DUP4 PUSH20 0xFFFFFFFFFFFFFFFFFFFFFFFFFFFFFFFFFFFFFFFF AND PUSH20 0xFFFFFFFFFFFFFFFFFFFFFFFFFFFFFFFFFFFFFFFF AND DUP2 MSTORE PUSH1 0x20 ADD SWAP1 DUP2 MSTORE PUSH1 0x20 ADD PUSH0 KECCAK256 DUP2 SWAP1 SSTORE POP PUSH0 DUP3 GT PUSH2 0x429 JUMPI PUSH1 0x40 MLOAD PUSH32 0x8C379A000000000000000000000000000000000000000000000000000000000 DUP2 MSTORE PUSH1 0x4 ADD PUSH2 0x420 SWAP1 PUSH2 0xE94 JUMP JUMPDEST PUSH1 0x40 MLOAD DUP1 SWAP2 SUB SWAP1 REVERT JUMPDEST DUP2 PUSH1 0x3 PUSH0 DUP3 DUP3 SLOAD PUSH2 0x43A SWAP2 SWAP1 PUSH2 0xDC6 JUMP JUMPDEST SWAP3 POP POP DUP2 SWAP1 SSTORE POP DUP2 PUSH1 0x6 PUSH0 CALLER PUSH20 0xFFFFFFFFFFFFFFFFFFFFFFFFFFFFFFFFFFFFFFFF AND PUSH20 0xFFFFFFFFFFFFFFFFFFFFFFFFFFFFFFFFFFFFFFFF AND DUP2 MSTORE PUSH1 0x20 ADD SWAP1 DUP2 MSTORE PUSH1 0x20 ADD PUSH0 KECCAK256 PUSH0 DUP3 DUP3 SLOAD PUSH2 0x48D SWAP2 SWAP1 PUSH2 0xDC6 JUMP JUMPDEST SWAP3 POP POP DUP2 SWAP1 SSTORE POP DUP2 CALLER PUSH20 0xFFFFFFFFFFFFFFFFFFFFFFFFFFFFFFFFFFFFFFFF AND PUSH32 0x9E71BC8EEA02A63969F509818F2DAFB9254532904319F9DBDA79B67BD34A5F3D PUSH1 0x40 MLOAD PUSH1 0x40 MLOAD DUP1 SWAP2 SUB SWAP1 LOG3 PUSH0 PUSH1 0x1 PUSH0 SWAP1 SLOAD SWAP1 PUSH2 0x100 EXP SWAP1 DIV PUSH20 0xFFFFFFFFFFFFFFFFFFFFFFFFFFFFFFFFFFFFFFFF AND PUSH20 0xFFFFFFFFFFFFFFFFFFFFFFFFFFFFFFFFFFFFFFFF AND PUSH4 0xA9059CBB CALLER DUP6 PUSH1 0x40 MLOAD DUP4 PUSH4 0xFFFFFFFF AND PUSH1 0xE0 SHL DUP2 MSTORE PUSH1 0x4 ADD PUSH2 0x535 SWAP3 SWAP2 SWAP1 PUSH2 0xEC1 JUMP JUMPDEST PUSH1 0x20 PUSH1 0x40 MLOAD DUP1 DUP4 SUB DUP2 PUSH0 DUP8 GAS CALL ISZERO DUP1 ISZERO PUSH2 0x551 JUMPI RETURNDATASIZE PUSH0 DUP1 RETURNDATACOPY RETURNDATASIZE PUSH0 REVERT JUMPDEST POP POP POP POP PUSH1 0x40 MLOAD RETURNDATASIZE PUSH1 0x1F NOT PUSH1 0x1F DUP3 ADD AND DUP3 ADD DUP1 PUSH1 0x40 MSTORE POP DUP2 ADD SWAP1 PUSH2 0x575 SWAP2 SWAP1 PUSH2 0xF1D JUMP JUMPDEST SWAP1 POP DUP1 PUSH2 0x5B7 JUMPI PUSH1 0x40 MLOAD PUSH32 0x8C379A000000000000000000000000000000000000000000000000000000000 DUP2 MSTORE PUSH1 0x4 ADD PUSH2 0x5AE SWAP1 PUSH2 0xF92 JUMP JUMPDEST PUSH1 0x40 MLOAD DUP1 SWAP2 SUB SWAP1 REVERT JUMPDEST POP POP PUSH2 0x5C1 PUSH2 0xC0D JUMP JUMPDEST POP JUMP JUMPDEST PUSH2 0x5CC PUSH2 0xBC0 JUMP JUMPDEST CALLER PUSH2 0x5D5 PUSH2 0xB6F JUMP JUMPDEST PUSH1 0x4 DUP2 SWAP1 SSTORE POP TIMESTAMP PUSH1 0x5 DUP2 SWAP1 SSTORE POP PUSH2 0x5EB DUP2 PUSH2 0x286 JUMP JUMPDEST PUSH1 0x7 PUSH0 DUP4 PUSH20 0xFFFFFFFFFFFFFFFFFFFFFFFFFFFFFFFFFFFFFFFF AND PUSH20 0xFFFFFFFFFFFFFFFFFFFFFFFFFFFFFFFFFFFFFFFF AND DUP2 MSTORE PUSH1 0x20 ADD SWAP1 DUP2 MSTORE PUSH1 0x20 ADD PUSH0 KECCAK256 DUP2 SWAP1 SSTORE POP PUSH1 0x4 SLOAD PUSH1 0x8 PUSH0 DUP4 PUSH20 0xFFFFFFFFFFFFFFFFFFFFFFFFFFFFFFFFFFFFFFFF AND PUSH20 0xFFFFFFFFFFFFFFFFFFFFFFFFFFFFFFFFFFFFFFFF AND DUP2 MSTORE PUSH1 0x20 ADD SWAP1 DUP2 MSTORE PUSH1 0x20 ADD PUSH0 KECCAK256 DUP2 SWAP1 SSTORE POP PUSH0 PUSH1 0x7 PUSH0 CALLER PUSH20 0xFFFFFFFFFFFFFFFFFFFFFFFFFFFFFFFFFFFFFFFF AND PUSH20 0xFFFFFFFFFFFFFFFFFFFFFFFFFFFFFFFFFFFFFFFF AND DUP2 MSTORE PUSH1 0x20 ADD SWAP1 DUP2 MSTORE PUSH1 0x20 ADD PUSH0 KECCAK256 SLOAD SWAP1 POP PUSH0 DUP2 GT PUSH2 0x6F3 JUMPI PUSH1 0x40 MLOAD PUSH32 0x8C379A000000000000000000000000000000000000000000000000000000000 DUP2 MSTORE PUSH1 0x4 ADD PUSH2 0x6EA SWAP1 PUSH2 0xFFA JUMP JUMPDEST PUSH1 0x40 MLOAD DUP1 SWAP2 SUB SWAP1 REVERT JUMPDEST PUSH0 PUSH1 0x7 PUSH0 CALLER PUSH20 0xFFFFFFFFFFFFFFFFFFFFFFFFFFFFFFFFFFFFFFFF AND PUSH20 0xFFFFFFFFFFFFFFFFFFFFFFFFFFFFFFFFFFFFFFFF AND DUP2 MSTORE PUSH1 0x20 ADD SWAP1 DUP2 MSTORE PUSH1 0x20 ADD PUSH0 KECCAK256 DUP2 SWAP1 SSTORE POP DUP1 CALLER PUSH20 0xFFFFFFFFFFFFFFFFFFFFFFFFFFFFFFFFFFFFFFFF AND PUSH32 0xFC30CDDEA38E2BF4D6EA7D3F9ED3B6AD7F176419F4963BD81318067A4AEE73FE PUSH1 0x40 MLOAD PUSH1 0x40 MLOAD DUP1 SWAP2 SUB SWAP1 LOG3 PUSH0 PUSH1 0x1 PUSH0 SWAP1 SLOAD SWAP1 PUSH2 0x100 EXP SWAP1 DIV PUSH20 0xFFFFFFFFFFFFFFFFFFFFFFFFFFFFFFFFFFFFFFFF AND PUSH20 0xFFFFFFFFFFFFFFFFFFFFFFFFFFFFFFFFFFFFFFFF AND PUSH4 0xA9059CBB CALLER DUP5 PUSH1 0x40 MLOAD DUP4 PUSH4 0xFFFFFFFF AND PUSH1 0xE0 SHL DUP2 MSTORE PUSH1 0x4 ADD PUSH2 0x7D6 SWAP3 SWAP2 SWAP1 PUSH2 0xEC1 JUMP JUMPDEST PUSH1 0x20 PUSH1 0x40 MLOAD DUP1 DUP4 SUB DUP2 PUSH0 DUP8 GAS CALL ISZERO DUP1 ISZERO PUSH2 0x7F2 JUMPI RETURNDATASIZE PUSH0 DUP1 RETURNDATACOPY RETURNDATASIZE PUSH0 REVERT JUMPDEST POP POP POP POP PUSH1 0x40 MLOAD RETURNDATASIZE PUSH1 0x1F NOT PUSH1 0x1F DUP3 ADD AND DUP3 ADD DUP1 PUSH1 0x40 MSTORE POP DUP2 ADD SWAP1 PUSH2 0x816 SWAP2 SWAP1 PUSH2 0xF1D JUMP JUMPDEST SWAP1 POP DUP1 PUSH2 0x858 JUMPI PUSH1 0x40 MLOAD PUSH32 0x8C379A000000000000000000000000000000000000000000000000000000000 DUP2 MSTORE PUSH1 0x4 ADD PUSH2 0x84F SWAP1 PUSH2 0xF92 JUMP JUMPDEST PUSH1 0x40 MLOAD DUP1 SWAP2 SUB SWAP1 REVERT JUMPDEST POP POP POP PUSH2 0x863 PUSH2 0xC0D JUMP JUMPDEST JUMP JUMPDEST PUSH1 0xA DUP2 JUMP JUMPDEST PUSH1 0x6 PUSH1 0x20 MSTORE DUP1 PUSH0 MSTORE PUSH1 0x40 PUSH0 KECCAK256 PUSH0 SWAP2 POP SWAP1 POP SLOAD DUP2 JUMP JUMPDEST PUSH1 0x2 PUSH0 SWAP1 SLOAD SWAP1 PUSH2 0x100 EXP SWAP1 DIV PUSH20 0xFFFFFFFFFFFFFFFFFFFFFFFFFFFFFFFFFFFFFFFF AND DUP2 JUMP JUMPDEST PUSH1 0x8 PUSH1 0x20 MSTORE DUP1 PUSH0 MSTORE PUSH1 0x40 PUSH0 KECCAK256 PUSH0 SWAP2 POP SWAP1 POP SLOAD DUP2 JUMP JUMPDEST PUSH2 0x8C1 PUSH2 0xBC0 JUMP JUMPDEST CALLER PUSH2 0x8CA PUSH2 0xB6F JUMP JUMPDEST PUSH1 0x4 DUP2 SWAP1 SSTORE POP TIMESTAMP PUSH1 0x5 DUP2 SWAP1 SSTORE POP PUSH2 0x8E0 DUP2 PUSH2 0x286 JUMP JUMPDEST PUSH1 0x7 PUSH0 DUP4 PUSH20 0xFFFFFFFFFFFFFFFFFFFFFFFFFFFFFFFFFFFFFFFF AND PUSH20 0xFFFFFFFFFFFFFFFFFFFFFFFFFFFFFFFFFFFFFFFF AND DUP2 MSTORE PUSH1 0x20 ADD SWAP1 DUP2 MSTORE PUSH1 0x20 ADD PUSH0 KECCAK256 DUP2 SWAP1 SSTORE POP PUSH1 0x4 SLOAD PUSH1 0x8 PUSH0 DUP4 PUSH20 0xFFFFFFFFFFFFFFFFFFFFFFFFFFFFFFFFFFFFFFFF AND PUSH20 0xFFFFFFFFFFFFFFFFFFFFFFFFFFFFFFFFFFFFFFFF AND DUP2 MSTORE PUSH1 0x20 ADD SWAP1 DUP2 MSTORE PUSH1 0x20 ADD PUSH0 KECCAK256 DUP2 SWAP1 SSTORE POP PUSH0 DUP3 GT PUSH2 0x9A7 JUMPI PUSH1 0x40 MLOAD PUSH32 0x8C379A000000000000000000000000000000000000000000000000000000000 DUP2 MSTORE PUSH1 0x4 ADD PUSH2 0x99E SWAP1 PUSH2 0xE94 JUMP JUMPDEST PUSH1 0x40 MLOAD DUP1 SWAP2 SUB SWAP1 REVERT JUMPDEST DUP2 PUSH1 0x3 PUSH0 DUP3 DUP3 SLOAD PUSH2 0x9B8 SWAP2 SWAP1 PUSH2 0x1018 JUMP JUMPDEST SWAP3 POP POP DUP2 SWAP1 SSTORE POP DUP2 PUSH1 0x6 PUSH0 CALLER PUSH20 0xFFFFFFFFFFFFFFFFFFFFFFFFFFFFFFFFFFFFFFFF AND PUSH20 0xFFFFFFFFFFFFFFFFFFFFFFFFFFFFFFFFFFFFFFFF AND DUP2 MSTORE PUSH1 0x20 ADD SWAP1 DUP2 MSTORE PUSH1 0x20 ADD PUSH0 KECCAK256 PUSH0 DUP3 DUP3 SLOAD PUSH2 0xA0B SWAP2 SWAP1 PUSH2 0x1018 JUMP JUMPDEST SWAP3 POP POP DUP2 SWAP1 SSTORE POP DUP2 CALLER PUSH20 0xFFFFFFFFFFFFFFFFFFFFFFFFFFFFFFFFFFFFFFFF AND PUSH32 0x9E71BC8EEA02A63969F509818F2DAFB9254532904319F9DBDA79B67BD34A5F3D PUSH1 0x40 MLOAD PUSH1 0x40 MLOAD DUP1 SWAP2 SUB SWAP1 LOG3 PUSH0 PUSH1 0x1 PUSH0 SWAP1 SLOAD SWAP1 PUSH2 0x100 EXP SWAP1 DIV PUSH20 0xFFFFFFFFFFFFFFFFFFFFFFFFFFFFFFFFFFFFFFFF AND PUSH20 0xFFFFFFFFFFFFFFFFFFFFFFFFFFFFFFFFFFFFFFFF AND PUSH4 0x23B872DD CALLER ADDRESS DUP7 PUSH1 0x40 MLOAD DUP5 PUSH4 0xFFFFFFFF AND PUSH1 0xE0 SHL DUP2 MSTORE PUSH1 0x4 ADD PUSH2 0xAB5 SWAP4 SWAP3 SWAP2 SWAP1 PUSH2 0x104B JUMP JUMPDEST PUSH1 0x20 PUSH1 0x40 MLOAD DUP1 DUP4 SUB DUP2 PUSH0 DUP8 GAS CALL ISZERO DUP1 ISZERO PUSH2 0xAD1 JUMPI RETURNDATASIZE PUSH0 DUP1 RETURNDATACOPY RETURNDATASIZE PUSH0 REVERT JUMPDEST POP POP POP POP PUSH1 0x40 MLOAD RETURNDATASIZE PUSH1 0x1F NOT PUSH1 0x1F DUP3 ADD AND DUP3 ADD DUP1 PUSH1 0x40 MSTORE POP DUP2 ADD SWAP1 PUSH2 0xAF5 SWAP2 SWAP1 PUSH2 0xF1D JUMP JUMPDEST SWAP1 POP DUP1 PUSH2 0xB37 JUMPI PUSH1 0x40 MLOAD PUSH32 0x8C379A000000000000000000000000000000000000000000000000000000000 DUP2 MSTORE PUSH1 0x4 ADD PUSH2 0xB2E SWAP1 PUSH2 0xF92 JUMP JUMPDEST PUSH1 0x40 MLOAD DUP1 SWAP2 SUB SWAP1 REVERT JUMPDEST POP POP PUSH2 0xB41 PUSH2 0xC0D JUMP JUMPDEST POP JUMP JUMPDEST PUSH1 0x1 PUSH0 SWAP1 SLOAD SWAP1 PUSH2 0x100 EXP SWAP1 DIV PUSH20 0xFFFFFFFFFFFFFFFFFFFFFFFFFFFFFFFFFFFFFFFF AND DUP2 JUMP JUMPDEST PUSH1 0x5 SLOAD DUP2 JUMP JUMPDEST PUSH0 DUP1 PUSH1 0x3 SLOAD SUB PUSH2 0xB83 JUMPI PUSH1 0x4 SLOAD SWAP1 POP PUSH2 0xBB7 JUMP JUMPDEST PUSH0 PUSH1 0x5 SLOAD TIMESTAMP PUSH2 0xB92 SWAP2 SWAP1 PUSH2 0xDC6 JUMP JUMPDEST SWAP1 POP PUSH0 DUP2 PUSH1 0xA PUSH2 0xBA2 SWAP2 SWAP1 PUSH2 0xDF9 JUMP JUMPDEST SWAP1 POP PUSH1 0x3 SLOAD DUP2 PUSH2 0xBB2 SWAP2 SWAP1 PUSH2 0x10AD JUMP JUMPDEST SWAP3 POP POP POP JUMPDEST SWAP1 JUMP JUMPDEST PUSH1 0x4 SLOAD DUP2 JUMP JUMPDEST PUSH1 0x2 PUSH0 SLOAD SUB PUSH2 0xC04 JUMPI PUSH1 0x40 MLOAD PUSH32 0x8C379A000000000000000000000000000000000000000000000000000000000 DUP2 MSTORE PUSH1 0x4 ADD PUSH2 0xBFB SWAP1 PUSH2 0x1127 JUMP JUMPDEST PUSH1 0x40 MLOAD DUP1 SWAP2 SUB SWAP1 REVERT JUMPDEST PUSH1 0x2 PUSH0 DUP2 SWAP1 SSTORE POP JUMP JUMPDEST PUSH1 0x1 PUSH0 DUP2 SWAP1 SSTORE POP JUMP JUMPDEST PUSH0 DUP1 REVERT JUMPDEST PUSH0 PUSH20 0xFFFFFFFFFFFFFFFFFFFFFFFFFFFFFFFFFFFFFFFF DUP3 AND SWAP1 POP SWAP2 SWAP1 POP JUMP JUMPDEST PUSH0 PUSH2 0xC43 DUP3 PUSH2 0xC1A JUMP JUMPDEST SWAP1 POP SWAP2 SWAP1 POP JUMP JUMPDEST PUSH2 0xC53 DUP2 PUSH2 0xC39 JUMP JUMPDEST DUP2 EQ PUSH2 0xC5D JUMPI PUSH0 DUP1 REVERT JUMPDEST POP JUMP JUMPDEST PUSH0 DUP2 CALLDATALOAD SWAP1 POP PUSH2 0xC6E DUP2 PUSH2 0xC4A JUMP JUMPDEST SWAP3 SWAP2 POP POP JUMP JUMPDEST PUSH0 PUSH1 0x20 DUP3 DUP5 SUB SLT ISZERO PUSH2 0xC89 JUMPI PUSH2 0xC88 PUSH2 0xC16 JUMP JUMPDEST JUMPDEST PUSH0 PUSH2 0xC96 DUP5 DUP3 DUP6 ADD PUSH2 0xC60 JUMP JUMPDEST SWAP2 POP POP SWAP3 SWAP2 POP POP JUMP JUMPDEST PUSH0 DUP2 SWAP1 POP SWAP2 SWAP1 POP JUMP JUMPDEST PUSH2 0xCB1 DUP2 PUSH2 0xC9F JUMP JUMPDEST DUP3 MSTORE POP POP JUMP JUMPDEST PUSH0 PUSH1 0x20 DUP3 ADD SWAP1 POP PUSH2 0xCCA PUSH0 DUP4 ADD DUP5 PUSH2 0xCA8 JUMP JUMPDEST SWAP3 SWAP2 POP POP JUMP JUMPDEST PUSH2 0xCD9 DUP2 PUSH2 0xC9F JUMP JUMPDEST DUP2 EQ PUSH2 0xCE3 JUMPI PUSH0 DUP1 REVERT JUMPDEST POP JUMP JUMPDEST PUSH0 DUP2 CALLDATALOAD SWAP1 POP PUSH2 0xCF4 DUP2 PUSH2 0xCD0 JUMP JUMPDEST SWAP3 SWAP2 POP POP JUMP JUMPDEST PUSH0 PUSH1 0x20 DUP3 DUP5 SUB SLT ISZERO PUSH2 0xD0F JUMPI PUSH2 0xD0E PUSH2 0xC16 JUMP JUMPDEST JUMPDEST PUSH0 PUSH2 0xD1C DUP5 DUP3 DUP6 ADD PUSH2 0xCE6 JUMP JUMPDEST SWAP2 POP POP SWAP3 SWAP2 POP POP JUMP JUMPDEST PUSH0 DUP2 SWAP1 POP SWAP2 SWAP1 POP JUMP JUMPDEST PUSH0 PUSH2 0xD48 PUSH2 0xD43 PUSH2 0xD3E DUP5 PUSH2 0xC1A JUMP JUMPDEST PUSH2 0xD25 JUMP JUMPDEST PUSH2 0xC1A JUMP JUMPDEST SWAP1 POP SWAP2 SWAP1 POP JUMP JUMPDEST PUSH0 PUSH2 0xD59 DUP3 PUSH2 0xD2E JUMP JUMPDEST SWAP1 POP SWAP2 SWAP1 POP JUMP JUMPDEST PUSH0 PUSH2 0xD6A DUP3 PUSH2 0xD4F JUMP JUMPDEST SWAP1 POP SWAP2 SWAP1 POP JUMP JUMPDEST PUSH2 0xD7A DUP2 PUSH2 0xD60 JUMP JUMPDEST DUP3 MSTORE POP POP JUMP JUMPDEST PUSH0 PUSH1 0x20 DUP3 ADD SWAP1 POP PUSH2 0xD93 PUSH0 DUP4 ADD DUP5 PUSH2 0xD71 JUMP JUMPDEST SWAP3 SWAP2 POP POP JUMP JUMPDEST PUSH32 0x4E487B7100000000000000000000000000000000000000000000000000000000 PUSH0 MSTORE PUSH1 0x11 PUSH1 0x4 MSTORE PUSH1 0x24 PUSH0 REVERT JUMPDEST PUSH0 PUSH2 0xDD0 DUP3 PUSH2 0xC9F JUMP JUMPDEST SWAP2 POP PUSH2 0xDDB DUP4 PUSH2 0xC9F JUMP JUMPDEST SWAP3 POP DUP3 DUP3 SUB SWAP1 POP DUP2 DUP2 GT ISZERO PUSH2 0xDF3 JUMPI PUSH2 0xDF2 PUSH2 0xD99 JUMP JUMPDEST JUMPDEST SWAP3 SWAP2 POP POP JUMP JUMPDEST PUSH0 PUSH2 0xE03 DUP3 PUSH2 0xC9F JUMP JUMPDEST SWAP2 POP PUSH2 0xE0E DUP4 PUSH2 0xC9F JUMP JUMPDEST SWAP3 POP DUP3 DUP3 MUL PUSH2 0xE1C DUP2 PUSH2 0xC9F JUMP JUMPDEST SWAP2 POP DUP3 DUP3 DIV DUP5 EQ DUP4 ISZERO OR PUSH2 0xE33 JUMPI PUSH2 0xE32 PUSH2 0xD99 JUMP JUMPDEST JUMPDEST POP SWAP3 SWAP2 POP POP JUMP JUMPDEST PUSH0 DUP3 DUP3 MSTORE PUSH1 0x20 DUP3 ADD SWAP1 POP SWAP3 SWAP2 POP POP JUMP JUMPDEST PUSH32 0x416D6F756E74206D7573742062652067726561746572207468616E207A65726F PUSH0 DUP3 ADD MSTORE POP JUMP JUMPDEST PUSH0 PUSH2 0xE7E PUSH1 0x20 DUP4 PUSH2 0xE3A JUMP JUMPDEST SWAP2 POP PUSH2 0xE89 DUP3 PUSH2 0xE4A JUMP JUMPDEST PUSH1 0x20 DUP3 ADD SWAP1 POP SWAP2 SWAP1 POP JUMP JUMPDEST PUSH0 PUSH1 0x20 DUP3 ADD SWAP1 POP DUP2 DUP2 SUB PUSH0 DUP4 ADD MSTORE PUSH2 0xEAB DUP2 PUSH2 0xE72 JUMP JUMPDEST SWAP1 POP SWAP2 SWAP1 POP JUMP JUMPDEST PUSH2 0xEBB DUP2 PUSH2 0xC39 JUMP JUMPDEST DUP3 MSTORE POP POP JUMP JUMPDEST PUSH0 PUSH1 0x40 DUP3 ADD SWAP1 POP PUSH2 0xED4 PUSH0 DUP4 ADD DUP6 PUSH2 0xEB2 JUMP JUMPDEST PUSH2 0xEE1 PUSH1 0x20 DUP4 ADD DUP5 PUSH2 0xCA8 JUMP JUMPDEST SWAP4 SWAP3 POP POP POP JUMP JUMPDEST PUSH0 DUP2 ISZERO ISZERO SWAP1 POP SWAP2 SWAP1 POP JUMP JUMPDEST PUSH2 0xEFC DUP2 PUSH2 0xEE8 JUMP JUMPDEST DUP2 EQ PUSH2 0xF06 JUMPI PUSH0 DUP1 REVERT JUMPDEST POP JUMP JUMPDEST PUSH0 DUP2 MLOAD SWAP1 POP PUSH2 0xF17 DUP2 PUSH2 0xEF3 JUMP JUMPDEST SWAP3 SWAP2 POP POP JUMP JUMPDEST PUSH0 PUSH1 0x20 DUP3 DUP5 SUB SLT ISZERO PUSH2 0xF32 JUMPI PUSH2 0xF31 PUSH2 0xC16 JUMP JUMPDEST JUMPDEST PUSH0 PUSH2 0xF3F DUP5 DUP3 DUP6 ADD PUSH2 0xF09 JUMP JUMPDEST SWAP2 POP POP SWAP3 SWAP2 POP POP JUMP JUMPDEST PUSH32 0x5472616E73666572206661696C65640000000000000000000000000000000000 PUSH0 DUP3 ADD MSTORE POP JUMP JUMPDEST PUSH0 PUSH2 0xF7C PUSH1 0xF DUP4 PUSH2 0xE3A JUMP JUMPDEST SWAP2 POP PUSH2 0xF87 DUP3 PUSH2 0xF48 JUMP JUMPDEST PUSH1 0x20 DUP3 ADD SWAP1 POP SWAP2 SWAP1 POP JUMP JUMPDEST PUSH0 PUSH1 0x20 DUP3 ADD SWAP1 POP DUP2 DUP2 SUB PUSH0 DUP4 ADD MSTORE PUSH2 0xFA9 DUP2 PUSH2 0xF70 JUMP JUMPDEST SWAP1 POP SWAP2 SWAP1 POP JUMP JUMPDEST PUSH32 0x4E6F7265776172647320746F20636C61696D0000000000000000000000000000 PUSH0 DUP3 ADD MSTORE POP JUMP JUMPDEST PUSH0 PUSH2 0xFE4 PUSH1 0x12 DUP4 PUSH2 0xE3A JUMP JUMPDEST SWAP2 POP PUSH2 0xFEF DUP3 PUSH2 0xFB0 JUMP JUMPDEST PUSH1 0x20 DUP3 ADD SWAP1 POP SWAP2 SWAP1 POP JUMP JUMPDEST PUSH0 PUSH1 0x20 DUP3 ADD SWAP1 POP DUP2 DUP2 SUB PUSH0 DUP4 ADD MSTORE PUSH2 0x1011 DUP2 PUSH2 0xFD8 JUMP JUMPDEST SWAP1 POP SWAP2 SWAP1 POP JUMP JUMPDEST PUSH0 PUSH2 0x1022 DUP3 PUSH2 0xC9F JUMP JUMPDEST SWAP2 POP PUSH2 0x102D DUP4 PUSH2 0xC9F JUMP JUMPDEST SWAP3 POP DUP3 DUP3 ADD SWAP1 POP DUP1 DUP3 GT ISZERO PUSH2 0x1045 JUMPI PUSH2 0x1044 PUSH2 0xD99 JUMP JUMPDEST JUMPDEST SWAP3 SWAP2 POP POP JUMP JUMPDEST PUSH0 PUSH1 0x60 DUP3 ADD SWAP1 POP PUSH2 0x105E PUSH0 DUP4 ADD DUP7 PUSH2 0xEB2 JUMP JUMPDEST PUSH2 0x106B PUSH1 0x20 DUP4 ADD DUP6 PUSH2 0xEB2 JUMP JUMPDEST PUSH2 0x1078 PUSH1 0x40 DUP4 ADD DUP5 PUSH2 0xCA8 JUMP JUMPDEST SWAP5 SWAP4 POP POP POP POP JUMP JUMPDEST PUSH32 0x4E487B7100000000000000000000000000000000000000000000000000000000 PUSH0 MSTORE PUSH1 0x12 PUSH1 0x4 MSTORE PUSH1 0x24 PUSH0 REVERT JUMPDEST PUSH0 PUSH2 0x10B7 DUP3 PUSH2 0xC9F JUMP JUMPDEST SWAP2 POP PUSH2 0x10C2 DUP4 PUSH2 0xC9F JUMP JUMPDEST SWAP3 POP DUP3 PUSH2 0x10D2 JUMPI PUSH2 0x10D1 PUSH2 0x1080 JUMP JUMPDEST JUMPDEST DUP3 DUP3 DIV SWAP1 POP SWAP3 SWAP2 POP POP JUMP JUMPDEST PUSH32 0x5265656E7472616E637947756172643A207265656E7472616E742063616C6C00 PUSH0 DUP3 ADD MSTORE POP JUMP JUMPDEST PUSH0 PUSH2 0x1111 PUSH1 0x1F DUP4 PUSH2 0xE3A JUMP JUMPDEST SWAP2 POP PUSH2 0x111C DUP3 PUSH2 0x10DD JUMP JUMPDEST PUSH1 0x20 DUP3 ADD SWAP1 POP SWAP2 SWAP1 POP JUMP JUMPDEST PUSH0 PUSH1 0x20 DUP3 ADD SWAP1 POP DUP2 DUP2 SUB PUSH0 DUP4 ADD MSTORE PUSH2 0x113E DUP2 PUSH2 0x1105 JUMP JUMPDEST SWAP1 POP SWAP2 SWAP1 POP JUMP INVALID LOG2 PUSH5 0x6970667358 0x22 SLT KECCAK256 MLOAD 0xF6 PUSH15 0xA740BA3CA97B9C4DD6FC5936580F13 CALLDATACOPY 0xDE JUMPDEST 0xE4 MULMOD LOG0 CALLER CREATE2 PUSH30 0x9D39A20E0464736F6C634300081600330000000000000000000000000000 "
				},
				"gasEstimates": {
					"creation": {
						"codeDepositCost": "895000",
						"executionCost": "infinite",
						"totalCost": "infinite"
					},
					"external": {
						"REWARD_RATE()": "414",
						"earned(address)": "infinite",
						"getReward()": "infinite",
						"lastUpdatedTime()": "2469",
						"rewardPerToken()": "infinite",
						"rewardPerTokenStored()": "2513",
						"rewards(address)": "2825",
						"s_rewardToken()": "infinite",
						"s_stakingToken()": "infinite",
						"stake(uint256)": "infinite",
						"stakedBalance(address)": "2913",
						"userRewardPerTokenPaid(address)": "2847",
						"withdraw(uint256)": "infinite"
					}
				},
				"methodIdentifiers": {
					"REWARD_RATE()": "5997bb37",
					"earned(address)": "008cc262",
					"getReward()": "3d18b912",
					"lastUpdatedTime()": "bf856895",
					"rewardPerToken()": "cd3daf9d",
					"rewardPerTokenStored()": "df136d65",
					"rewards(address)": "0700037d",
					"s_rewardToken()": "6374cc00",
					"s_stakingToken()": "adca9b72",
					"stake(uint256)": "a694fc3a",
					"stakedBalance(address)": "60217267",
					"userRewardPerTokenPaid(address)": "8b876347",
					"withdraw(uint256)": "2e1a7d4d"
				}
			},
			"storageLayout": {
				"storage": [
					{
						"astId": 10,
						"contract": "contracts/Staking.sol:Staking",
						"label": "_status",
						"offset": 0,
						"slot": "0",
						"type": "t_uint256"
					},
					{
						"astId": 464,
						"contract": "contracts/Staking.sol:Staking",
						"label": "s_stakingToken",
						"offset": 0,
						"slot": "1",
						"type": "t_contract(IERC20)142"
					},
					{
						"astId": 467,
						"contract": "contracts/Staking.sol:Staking",
						"label": "s_rewardToken",
						"offset": 0,
						"slot": "2",
						"type": "t_contract(IERC20)142"
					},
					{
						"astId": 472,
						"contract": "contracts/Staking.sol:Staking",
						"label": "totalStakedTokens",
						"offset": 0,
						"slot": "3",
						"type": "t_uint256"
					},
					{
						"astId": 474,
						"contract": "contracts/Staking.sol:Staking",
						"label": "rewardPerTokenStored",
						"offset": 0,
						"slot": "4",
						"type": "t_uint256"
					},
					{
						"astId": 476,
						"contract": "contracts/Staking.sol:Staking",
						"label": "lastUpdatedTime",
						"offset": 0,
						"slot": "5",
						"type": "t_uint256"
					},
					{
						"astId": 480,
						"contract": "contracts/Staking.sol:Staking",
						"label": "stakedBalance",
						"offset": 0,
						"slot": "6",
						"type": "t_mapping(t_address,t_uint256)"
					},
					{
						"astId": 484,
						"contract": "contracts/Staking.sol:Staking",
						"label": "rewards",
						"offset": 0,
						"slot": "7",
						"type": "t_mapping(t_address,t_uint256)"
					},
					{
						"astId": 488,
						"contract": "contracts/Staking.sol:Staking",
						"label": "userRewardPerTokenPaid",
						"offset": 0,
						"slot": "8",
						"type": "t_mapping(t_address,t_uint256)"
					}
				],
				"types": {
					"t_address": {
						"encoding": "inplace",
						"label": "address",
						"numberOfBytes": "20"
					},
					"t_contract(IERC20)142": {
						"encoding": "inplace",
						"label": "contract IERC20",
						"numberOfBytes": "20"
					},
					"t_mapping(t_address,t_uint256)": {
						"encoding": "mapping",
						"key": "t_address",
						"label": "mapping(address => uint256)",
						"numberOfBytes": "32",
						"value": "t_uint256"
					},
					"t_uint256": {
						"encoding": "inplace",
						"label": "uint256",
						"numberOfBytes": "32"
					}
				}
			},
			"userdoc": {
				"kind": "user",
				"methods": {},
				"version": 1
			}
		}
	}
}